:020000041000EA
:1000000000B5324B212058609868022188439860DF
:10001000D860186158612E4B002199600221596106
:100020000121F02299502B49196001219960352056
:1000300000F044F80222904214D00621196600F024
:1000400034F8196E01211966002018661A6600F04E
:100050002CF8196E196E196E052000F02FF8012189
:100060000842F9D1002199601B49196000215960AB
:100070001A491B48016001219960EB211966A021F2
:10008000196600F012F800219960164914480160C1
:100090000121996001BC002800D000471248134993
:1000A000086003C880F30888084703B5996A0420EC
:1000B0000142FBD001200142F8D103BD02B5186610
:1000C0001866FFF7F2FF186E186E02BD00000240BE
:1000D000000000180000070000035F00212200005C
:1000E000F4000018222000A00001001008ED00E03C
:1000F00000000000000000000000000074B24E7A12
:1001000000200420F7010010C3010010C5010010F9
:10011000C1010010C1010010C1010010C101001097
:10012000C1010010C1010010C1010010C701001081
:10013000C1010010C1010010C9010010CB01001065
:10014000CD010010CD010010CD010010CD01001037
:10015000CD010010CD010010CD010010CD01001027
:10016000CD010010CD010010CD010010CD01001017
:10017000CD010010CD010010CD010010CD01001007
:10018000CD010010CD010010CD010010CD010010F7
:10019000CD010010CD010010CD010010CD010010E7
:1001A000CD010010CD010010CD010010CD010010D7
:1001B000CD010010CD010010CD010010CD010010C7
:1001C00000BE00BE00BE00BE00BE00BEEFF3058054
:1001D000103800BEF2EB8871F85500101856001068
:1001E0003402001090A31AE700201F49086006C8D7
:1001F00081F3088810471D48006800282FD10DA4FE
:100200000ECC002902D000F012F8F9E71849194A7B
:10021000002000E001C19142FCD1174988471749ED
:1002200088471749884700BEFDE701C901C29A42C5
:10023000FBD3704718560010C0000020E80E0020C5
:1002400040640010000004200000042040640010FE
:10025000001004200010042000000000704709482E
:1002600002F044FA0047000008ED00E0000000D072
:10027000E80E0020E01E002065250010C9030010D4
:10028000592600105756000006005250ABB3605379
:10029000D851001006005250861C0302E85100108D
:1002A000060052505422A29DF451001005005250F5
:1002B000DE65F46840640010F8B5C046064807499A
:1002C000091A8B10C90FC91810B5491003D0044B77
:1002D000002B00D0984710BDE80E0020E80E00204B
:1002E00000000000054B10B5002B03D00449054861
:1002F00000E000BFFFF7E2FF10BDC04600000000B5
:10030000641C002028510010F8B54546DE465746CB
:100310004E46E0B5274DAB69DB0622D4264B1024B0
:100320009946264B264F9846264B9A462600AB699F
:100330001E401C42FAD12B689B46DBB20D2B2CD001
:1003400049463A688B543B6801333B60AB699B0676
:100350000DD5434642461B6801331360AB691C420E
:10036000E4D0F0BCBB46B246A946A046F8BD5B4609
:10037000FF211940534600229B5E8B4205D020226C
:10038000AB691A42FCD12960E3E72020094A93694E
:100390001842FCD10D231360F1E700F087FA4A46BA
:1003A0003B6800210020D65400F098F800F0F4F8E3
:1003B0003E60CBE700400340FC1B00207417002088
:1003C000F01B0020C01E002070B502F0DDFB96215E
:1003D0003A4C0901200001F00FFD0221002000F03D
:1003E00073FA0221012000F06FFA962120008901A2
:1003F00001F0C8FDC022236B12021340304A0821CD
:10040000136020000023012201F018FE00212000CB
:1004100001F052FE14202B4900F068FB012114204A
:1004200000F02CFB5023A363626B183B1340264A59
:100430000A201360254B002200255D5F0D26202336
:100440002349002A2DD1854232D0A2691342FCD122
:1004500020600A7801310D3A504242410878D2B208
:100460000028EED1D02480251A491B4804F044FD11
:100470000321042000F028FA0321052000F024FACB
:1004800024061920AD0400F037FA656200F0D6F8B2
:100490006420656101F0DCF86420A56101F0D8F802
:1004A000F6E7A2691342D3D0A2691342F9D1CFE78C
:1004B000A2691342FCD12660C7E7C0460040034052
:1004C000305003400903001034500340C01E002088
:1004D0002851001040420F00C00E0020F0B5DE464B
:1004E00057464E464546E0B5137885B00191002B3E
:1004F00042D001329346274A0392012290465A463F
:10050000834602925A46D5B26A461679039A203B30
:1005100091469900CB1899446B1DDBB29A464B4625
:1005200000241F7806E001222800013400F0A4F91D
:10053000082C0DD03B00424623413119C9B21A4262
:10054000F1D100222800013400F096F9082CF1D1F5
:1005500001239C460135EDB2E1445545DFD15B46B0
:100560007C2B10D805239C46E344029B0133029365
:10057000013B1B78002BC5D105B0F0BCBB46B24691
:10058000A946A046F0BD019B0933019300239B4679
:10059000EBE7C046A85200108823F0B5002685B0CE
:1005A000214F224D03AC9B01397823802200022386
:1005B0002800009604F0C8FC397822002680022327
:1005C0002800009604F0C0FC194B397823800333CF
:1005D000220028000096FF3304F0B6FC84239B0120
:1005E00039782380220002232800009604F0ACFC16
:1005F00039782200268002232800009604F0A4FC0B
:10060000FE23DB0139782380220002232800009694
:1006100004F09AFC39782800064A074B009604F04B
:1006200093FC05B0F0BDC046E80D0020C00E0020D0
:1006300000FFFFFFA41C002001020000F0B5DE4611
:1006400057464E4645464022E0B50026784B85B0D9
:100650001420984691461A7000F0FAFF754F764DB7
:10066000764B03AC397823802200022328000096C1
:1006700004F06AFC724B39782380220002232800A0
:10068000009604F061FC6F4B39782380220002232E
:100690002800009604F058FC6B4B39782380220028
:1006A00002232800009604F04FFCF8235B01397800
:1006B0002380220002232800009604F045FC634BAF
:1006C00039782380220002232800009604F03CFCA5
:1006D00039782200268002232800009604F034FC9A
:1006E0008023DB01397823809B46220002232800E7
:1006F000009604F029FC564B39782380220002230F
:100700002800009604F020FCA0235B0139782380A8
:10071000220002232800009604F016FC80239B018F
:1007200039782380220002232800009604F00CFC74
:1007300039782200268002232800009604F004FC69
:10074000444B39782380220002232800009604F0CD
:10075000FBFB414B397823802200022328000096BE
:1007600004F0F2FB3D4B397823802200022328005D
:10077000009604F0E9FB80239B0023809A46FF3B10
:100780003978220028000096FF3B04F0DDFB344B53
:1007900039782380220002232800009604F0D4FB3D
:1007A000304B39782380220002232800009604F081
:1007B000CBFB2D4B397823802200022328000096A2
:1007C00004F0C2FB294B3978238022000223280041
:1007D000009604F0B9FB264B3978238022000223CF
:1007E0002800009604F0B0FB5B4639782380220095
:1007F00002232800009604F0A7FB1E4B39782380C3
:10080000220002232800009604F09EFB524600219D
:10081000404602F08FF843464A461A70FFF7BCFE86
:1008200005B0F0BCBB46B246A946A046F0BDC046E6
:10083000A41C0020E80D0020C00E002000AEFFFF29
:1008400000D5FFFF0080FFFF00A8FFFF00D3FFFFE0
:10085000008DFFFF00A1FFFF00C8FFFF00DAFFFFD0
:100860000081FFFF008FFFFF00D9FFFF00F1FFFFB6
:1008700000DBFFFF00AFFFFF43B230B5002B0FDB03
:100880001F290DD8CB080130DB011B180720064DAE
:10089000014006388840EC5C012A02D08443EC54C5
:1008A00030BD0443EC54FBE7A41C0020802210B5AB
:1008B000044C00212000920002F03CF840232370F9
:1008C00010BDC046A41C0020094A10B5944640241F
:1008D000830063441A68C000624080341440802260
:1008E000520113431C60034B9C466044416010BDA1
:1008F00004C00140004001400123D0228340120681
:1009000093629361094A40219446830063441A68C4
:10091000C0004A40803111408022520113431960C7
:10092000034B9C46052360444360704704C001406C
:1009300000400140024B18688007C00F7047C04656
:1009400000C0064070B5EFF3108C72B60D4D2B68E9
:10095000002BFCD0BFF35F8F0724CB08C618C05C08
:1009600001230C40A3401C000440034207D118435C
:100970003070BFF35F8F2C608CF3108870BD100057
:1009800001F06EFE2C0100D0F8B54746CE468846F1
:1009900080B5EFF3108C72B6214D2C68002CFCD082
:1009A000BFF35F8F9A422CD8D4080727055D06193C
:1009B00001241740BC402C421FD007210127894643
:1009C00009E0D408055D06194C4639001440A140E1
:1009D0000C00294211D001329342F2D20120404250
:1009E000BFF35F8F00220E4B1A608CF31088002833
:1009F0000FDBC0BCB946B046F8BD254310003570CA
:100A0000EEE7BFF35F8F00232B608CF3108801208B
:100A100040424346002BECD0089801F021FEC0462E
:100A20002C0100D00021044B044ABFF35F8F02C3A6
:100A30009342FAD17047C046000100D0800100D037
:100A4000044A1078431CDBB2172B00D91023137013
:100A50007047C046E90D002010B5064B064C82B029
:100A60000100009318221F232000FFF78DFF02B022
:100A700010BDC04644510010781700200123834068
:100A8000002904D0034A1360034A13607047034AE5
:100A90001360FBE780E200E000E100E080E100E0BD
:100AA00001238340014A13607047C04600E200E022
:100AB000084B10309B688000C358002B07D0064AB3
:100AC00000209B1A2F229A424041C0B2704700205A
:100AD000FCE7C04600ED00E0EC0D0020024B1030BA
:100AE0009B688000C058704700ED00E070B50D00B5
:100AF000EFF3108672B60F4A1368002BFCD0BFF3D9
:100B00005F8F0D4B10309B6884001B590B4A93423A
:100B100003D09D4201D001F0BBFD074B9B681D51E6
:100B2000BFF35F8FBFF35F8F0022024B1A6086F323
:100B3000108870BD240100D000ED00E0CD01001050
:100B4000F0B557464E46DE464546E0B585B0060050
:100B500000911700EFF3108B72B66A4A1368002BEE
:100B6000FCD0BFF35F8F0025674B5D579A46002D81
:100B700000DAA9E06B00654C01935B199B00984675
:100B8000A146C1444B4652469B7910361370604BC8
:100B9000B6009B6899590B1B2F2B33D95D4B99429B
:100BA00000D0ACE0019B42469C465B4B6544AD00E7
:100BB00063535A4B0232A218043B9B1A1B05584A36
:100BC0005B0D651913436B80564B0121AB80FF23EE
:100BD000AB71009BEF71AB604B460B4319004C4B64
:100BE0009B689951BFF35F8FBFF35F8F0022454B26
:100BF0001A608BF3108805B0F0BCBB46B246A9461C
:100C0000A046F0BD01200A008243D3798C46BB4246
:100C100031D84546130044491B1B5B415943090D1C
:100C20003D4B63533D4B02356519043B5B1B1B0574
:100C30003B4D5B0D2B43AA464D466B800425AC46CD
:100C40005546E044131F44441B1B1B055B0D1D430D
:100C50004B46997100999D8099604946DF71334BED
:100C600001431360BBE75800C01880002018C17909
:100C7000B9422FD902000623D356002BF3DA029390
:100C80002B4B61460393131D9A4604235B429C46FB
:100C9000E14450464B461B1A1B055B0D9C46204BFE
:100CA000957198466346404603439380019B5A19C9
:100CB0009200039BA418A380029B1C4AA371009B73
:100CC0002260E771A3608AE701F0E2FC0025534649
:100CD0005D574FE7908802934005131D9A46031510
:100CE00061469C464046D444634604302018181A96
:100CF000E0230005400D1B0218430390C5E701F0F7
:100D0000C7FC4FE7240100D0D91E0020EC0D0020C5
:100D100000ED00E0CD01001000A1FFFF1C0E00203F
:100D200000E0FFFF01BDFFFFAAAA000001488047C5
:100D300001BD0000F0B5DE4657464E464546E0B5DB
:100D40000C0083B0EFF3108872B65D4A1368002B75
:100D5000FCD0BFF35F8F5B4B5B499A680300103395
:100D60009F00D5598D4239D0A5424AD0574EAA1B73
:100D70002F2A33D801229246824091464846544A4F
:100D80001268104001904846524A1060BFF35F8FCE
:100D9000EFF305829346002A35D0934201D001F04B
:100DA00077FC2A0053469A439068844208D175E044
:100DB0004B005B189B00F3189868A04234D01A00CF
:100DC000062151560029F3DA844253D0019B002BAF
:100DD00026D04A46404B1A603D4B1A60394B9B68FF
:100DE000DD51BFF35F8FBFF35F8F0022344B1A607A
:100DF00088F3108803B0F0BCBB46B246A946A046B3
:100E0000F0BD0D00EAE72A0053469A4390688442F9
:100E1000D6D1062010561300002809DA0D0031E063
:100E20004A462C4B1A60D9E706201856002822DBC8
:100E300042001118890074188A46A1689960E17906
:100E4000D971062161569971002925DBA488F11A10
:100E50006405241554440919E0240905490D2402A8
:100E60002143998013181D4A9B001178F31899713A
:100E70001070ABE713005946002914D1FF3191716E
:100E80001749918015490A789A71164A9B1B5B4154
:100E90005A43120D0A7099E71349E2E706201056EB
:100EA00013000028C4DA114A1149D21A083A500234
:100EB000400D014399800F4952080A43DA8085E7C3
:100EC000240100D000ED00E0CD010010EC0D002069
:100ED00000E100E080E100E080E200E0D91E0020B7
:100EE00001BDFFFFAAAA000001BD0000260E0020E0
:100EF00000F0FFFF00F8FFFF70B5EFF3058101245C
:100F00000443EFF3108C72B6214A1368002BFCD017
:100F1000BFF35F8F1F4B05001F4AED1A6D416A43F7
:100F2000120D1E4D8900AE6852B27658A6421CD0F2
:100F30000621595691421CD012215956914222D075
:100F40001E215956914220D02A21595603249142FC
:100F500010D0134B19781A708171BFF35F8F002284
:100F60000B4B1A608CF3108870BDAB680D4C5C5055
:100F7000EFE700246100091989005B18FF219971CE
:100F800009499980E5E70124F4E70224F2E7C04625
:100F9000240100D0EC0D0020AAAA000000ED00E022
:100FA000D91E0020CD01001001BDFFFF054B064AF0
:100FB0001360064A136053609360D36013615361FA
:100FC000936170478080808000E400E004E400E0EA
:100FD00010B5084B084C82B0010000930022052395
:100FE0002000FFF7D1FC002801DB1F23181A02B0F4
:100FF00010BDC04660510010DE1E0020024B9C4612
:1010000061448900016070474000003410B504005D
:10101000FFF716FD01002000FFF7F0FFFF2323710B
:10102000BFF35F8F10BDC04610B50400FFF708FD89
:1010300001002000FFF7E2FFFF23A380BFF35F8FD3
:1010400010BDC04610B504000120FFF705FD034B9D
:10105000C3189B002360BFF35F8F10BD40000034B6
:10106000034B9C46614489000160BFF35F8F70476A
:101070004000003483680B4810B5844661446244E4
:101080001201090159189B185C684A6801209442B2
:1010900001D802D00020C0B210BD1A680B689A4275
:1010A000F9D8F7E7FFFFFF0F0A4B1968EFF310803D
:1010B00072B60A68002AFCD0BFF35F8F1B68BFF3CB
:1010C0005F8F00221A6080F3108840BF002000214B
:1010D0007047C046A01C0020F8B5574645464E460E
:1010E000DE46E0B598460CAB1C780DAB1B780700CC
:1010F00091469A460568002C59D1AC7B002C3BD018
:10110000660029683619033E89194B78AB73002BAA
:1011100000D1EB7300238B704B700B702D4BE218DA
:10112000BB6812019B184A461A6042465A600A9AE6
:101130009A600B9ADA6000238B704B700B706B7B9C
:101140009B46002B26D022006B685946A86898471A
:101150005B465B005B442A68033B002812D058467C
:101160009619B070D118D35C002B00D073705B4619
:101170000C706B735C450ED0F0BCBB46B246A94602
:10118000A046F8BDD3189C709119925D002A1CD11D
:101190005B460B706C734A464346387D00F0D8FBC3
:1011A000051E0AD10E9B002BE6D01D70E4E76600F9
:1011B00029683619033E8919B0E75346002BF1D14F
:1011C0002100386800F0DCFDECE75A705B460B70DC
:1011D0006C73E0E7FFFFFF0FF0B5DE4657464E4663
:1011E00045460023E0B58BB00893684B8200D45885
:1011F00000239B46099000F017FB02000B0060687B
:10120000EFF3108A72B6564601680029FCD0B24648
:10121000BFF35F8F21684F7B8C46002F2ED0A568CF
:101220005B49A94679180901894449460868496813
:1012300005000E00AD1A9E41002E5FDD02000B007E
:10124000099800F085FB00230022994600230692AE
:101250000793002398466368BFF35F8F5A461A606E
:101260008AF310884346002B12D10028C3D10BB05B
:10127000F0BCBB46B246A946A046F0BD0023002202
:101280009946002306920793002300209846E2E740
:10129000089B494618023843C047626805000E00A3
:1012A000EFF3108A72B61368002BFCD0BFF35F8F88
:1012B000002E41DB2B00334302D02369002B56D193
:1012C0002368D97B002905D01A68480041185218B4
:1012D000033A57709A7B002A00D19F73DF73E2684C
:1012E000013FD35D0133D3555B4623616368BFF390
:1012F0005F8F5A461A608AF310887CE7002E02D16D
:10130000002D00D09AE70021604600F0B7FC4B4664
:101310001A685B68069207934B469B6898464B4653
:10132000DB689946E368DB19013B1B7808931B02D5
:101330000343236100208EE72369002BC0D0069A67
:10134000079B8021521BB34109068B4202D3012225
:10135000104B524200210491013103914946019101
:101360004146200002970091FFF7B6FEBCE700F06F
:101370005BFA2A00330012184B41802109068B4288
:10138000E8D30122034B5242E4E7C046841C00200C
:10139000FFFFFF0FFFFFFF7F10B5144C6368002BAA
:1013A00004D00A211248FFF729FE10BD2300114A7C
:1013B0001021206800F07EFB032000F029FA0320B2
:1013C00000F02EFB03200C4900F07CFAFFF738FBFD
:1013D0000A4B9C4603232375D0231B061B686044DD
:1013E0006375074B80006060DC60DAE7340E002034
:1013F000A01C002075100010D9110010400000340E
:10140000841C002000487047340E0020F0B5574679
:101410004E464546DE46E0B585B0019310AB1B78DD
:101420000600039300239A46984600927268EFF3F1
:10143000108B72B61368002BFCD0BFF35F8F35683A
:10144000AC7B002C00D16EE067002B683F19033F96
:10145000DB195A78AA73002A00D1EA73484AA11806
:10146000B2680901521800980199106051600E99F4
:1014700091600F99D16042469A705A701A706B7BD6
:101480009946002B00D16BE022006B684946A868A2
:1014900098474B465B004B442A68033B002856D0D4
:1014A0004846D719B870D118D35C002B00D07B7098
:1014B0004B460C706B734C4553D0F3681B19013BC2
:1014C00018787368BFF35F8F42461A608BF31088F9
:1014D0005346002B08D10002204305B0F0BCBB46A8
:1014E000B246A946A046F0BD039B002B46D00E9BFA
:1014F00000200F99984703000B433FD004000D1EB6
:101500001ADA009A019B121BAB41009201938022D0
:101510001206934204D301231A4C5B4200930194B8
:10152000039B9A4682E77368BFF35F8F1C608BF35F
:10153000108801204042D0E700F076F9802200199F
:1015400069411206009001919142E9D3E3E7D31873
:101550009C70D119D25D002A00D05A704B460B7096
:101560006C73307D009A019B00F0F2F982460028EE
:10157000A3D02100306800F003FC9EE70020ACE718
:10158000FFFFFF0FFFFFFF7F407D7047F0B50400B6
:101590000D0006267642F717C64636196F4100B58C
:1015A00084B08F4214D811D000F03EF932003B00D5
:1015B000121A8B41002B15DC002B3ED02000290095
:1015C00000F070F904B080BCB846F0BD8642EBD99B
:1015D0000026002700F028F932003B00121A8B4148
:1015E000002BE9DD002302930193154B3200009399
:1015F00014483B00FFF70AFF0028DFDB0023984672
:10160000BC46114A114F7B6A9C4504D8B96A8E4288
:10161000D4D99C45D2D11168EFF3108072B60B6813
:10162000002BFCD0BFF35F8F1368BFF35F8F414681
:10163000196080F3108820BFE5E7002ABED0D1E70B
:10164000A9100010340E0020A01C0020004005400E
:1016500070B5060000F0E8F8FA2204000D0000233F
:1016600030000021920001F0FBF88023001969414D
:101670001B06994202D3012002494042FFF786FF30
:1016800070BDC046FFFFFF7FF0B5EFF30583CE4688
:10169000474680B505000C0085B0002B12D02A4AC1
:1016A0000020536AA34203D3926A0130AA4204D3B2
:1016B00005B0C0BCB946B046F0BD1B1B5A1E9341D5
:1016C000D8B2F5E7214E02930193214B020000931B
:1016D00030000B00FFF79AFE031EE0DD20BF7168AB
:1016E000EFF3108772B60A68002AFCD0BFF35F8F51
:1016F000DAB29446FF2230681A40417B61450FD030
:10170000016889465100884649469044414403395E
:101710008978002904D13269934209D1316107E007
:10172000F1681B0A8A18013A1278DBB29A4207D094
:101730007368BFF35F8F00221A6087F31088AEE7EB
:10174000614600F01DFBF3E700400540340E002029
:10175000A9100010F0B5EFF30582D6464F46464675
:101760001000C0B51038EFF3108872B6214C236812
:10177000002BFCD0BFF35F8F0123190081401E4D69
:101780001F006963AA461D4D29601D4D2E78AC4689
:101790003500C5402F402B4215D053465F6A194B88
:1017A0008500EB589F4218D36246174B8E43EB5887
:1017B0001670BFF35F8F0022226088F31088002B21
:1017C00006D0984704E0BFF35F8F276088F3108846
:1017D000E0BCBA46B146A846F0BD0C4B92009C4610
:1017E000624413681360BFF35F8F0023236088F3A4
:1017F0001088EDE7280100D0004005403C7005400E
:10180000DD1E0020B01E00205C160020D03F0540E9
:1018100010B5034B01001800024AFFF793F810BD02
:10182000D81E00207C510010034B596A0A00986AA8
:10183000596A8A42FAD170470040054070B50400E9
:101840000D00174A536A1900966A536A8B42FAD1FF
:101850003000190024184D41AB4216D813D0104B5C
:101860002A005B6A9D4203D90D494B6A9342FCD31F
:10187000934207D10A4A02E0516A994202D1916A21
:10188000A142F9D370BDA642E9D9054B5B6A1C00A1
:101890005A1CEFD0012201246442E5175242E3E7CB
:1018A00000400540064A536A9942FCD807D1044BD0
:1018B00002E05A6A914202D19A6A8242F9D3704791
:1018C0000040054070B504000D00EFF3108672B6BD
:1018D0001A4A1368002BFCD0BFF35F8F002D1BD07A
:1018E0002000FFF7FBF8164981420AD02000FFF7DD
:1018F000FDF801212000FFF7C1F80123A340114AA0
:101900001360114BA400E550BFF35F8F00220B4B17
:101910001A6086F3108870BD0121A1400A4BA20015
:10192000D5500A4B20001A788A4305491A70FFF7F0
:1019300001FA00212000FFF7A1F8E5E7280100D017
:1019400055170010386005405C160020DD1E002091
:10195000F0B54F46D6464646C0B507002B4C616AE7
:101960000D00A66A616AA942FAD18B4208D805D057
:101970000120E0BCBA46B146A846F0BDB242F7D954
:10198000EFF3108A72B6224801680029FCD0BFF339
:101990005F8F0125BD401F491C4C88460978894648
:1019A0002943C9B28C46414660460870391D8900FA
:1019B00065630A511849B8004350216A0020294242
:1019C00019D0616A0800A66A616A8142FAD18B4225
:1019D00019D801D1B24216D8CC450BD00B4B1F22DF
:1019E0001D625D6301233A4093400C4A13604346F5
:1019F0004A461A700120BFF35F8F0022044B1A6021
:101A00008AF31088B5E70020F5E7C046004005409E
:101A1000280100D0DD1E0020B01E002080E200E082
:101A2000EFF3108C72B60A490B68002BFCD0BFF3A1
:101A30005F8F01238340074A0748136202789A4365
:101A40000270BFF35F8F00230B608CF31088704728
:101A5000280100D000400540DD1E002070B50600C2
:101A60000D00140000291DD0002A12D07368806870
:101A7000984762006B0012195B193168033A033B07
:101A8000002808D08A189570C818CB5C002B0BD1A1
:101A90000470280070BDCB189C7088188A5C002ADE
:101AA00005D105702000F5E753700470F1E75A7016
:101AB0000570F7E710B583600023CCB243730133A0
:101AC000426004738373C4730068421C012C05D9FF
:101AD0000133DBB2137003329C42F9D1FF230B4078
:101AE0005A00D318C01800230338437010BDC046F5
:101AF00070B505000C1E07D0630001681B19033B7D
:101B0000CB185A78002A01D1200070BD50008018EF
:101B10000338091800204E784870210058702800BA
:101B2000FFF79CFF310004002800FFF7E1FF0600EB
:101B3000002C20D00028E7D0320021006B68A86874
:101B400098477200630092191B192968033A033BF6
:101B5000002808D08A189470C818CB5C002B00D0DD
:101B600053700670D0E7CB189E7088188A5C002AE4
:101B700000D05A7004703400C6E7C046F0B557462E
:101B80004546DE464E46E0B50D006F0001687F1900
:101B9000033F0400C85D83B00192CA19002850D0E9
:101BA00043001B18033BCB185E78B446002E1AD1B5
:101BB000019E002E42D0E67B002E04D073009B19BC
:101BC000CB18033B5D70A37B002B00D1A573E5739D
:101BD00000282FD10023537003B0F0BCBB46B2469F
:101BE000A946A046F0BD72006244033A8A185178B3
:101BF000884600215170894659703200010020004A
:101C0000FFF72CFF43468246002B07D05B0021687C
:101C10004344033BCB185A78002A16D1424651461A
:101C20002000FFF71BFF2168019BCA19002BC2D1BE
:101C30000028CFD043001B18033BCB18002199701C
:101C4000C8E7019B002BB6D1C4E7500080180338C9
:101C50000918487883464846487058704146200025
:101C6000FFF7FCFE594680462000FFF741FF414642
:101C700002002000FFF7F2FE8046CFE7F0B557469E
:101C80004546DE464E46E0B583B00191457B0400F3
:101C90006F0000687F19033FC15DC219002952D04F
:101CA0004B005B18033BC3185E78B446002E1CD172
:101CB000019E002E44D0E67B002E04D073009B19B9
:101CC000C318033B5D70A37B002B00D1A573E573A4
:101CD000002931D1002328005370617303B0F0BC98
:101CE000BB46B246A946A046F0BD72006244033A24
:101CF000821850788046002050708146587032001B
:101D00002000FFF7ABFE43468246002B07D05B0066
:101D100021684344033BCB185A78002A17D1424626
:101D200051462000FFF79AFE019B01002068C2196E
:101D3000002BC0D10029CDD04B005B18033BC3184A
:101D400000209870C6E7019B002BB4D1C2E7500079
:101D500080180338091848788346484648705870F8
:101D600041462000FFF77AFE594680462000FFF7E3
:101D7000BFFE414602002000FFF770FE8046CEE71E
:101D800070B5050000292CD0437B8B422ED04C002F
:101D900000686418033C0419A278002A21D053007B
:101DA0009B18033BC25CC6188A4202D11BE0002A82
:101DB00008D053009B18033BC3185A788A42F6D1C7
:101DC00062785A70002301222800A3706370FFF725
:101DD000D5FE697B02002800FFF740FE68730120F2
:101DE00000E0002070BD63783370EBE7012219003A
:101DF000FFF7C4FEF2E7C046F8B5CE4647460400FA
:101E000080B506200D0000F0EBFA061E53D0534BB0
:101E10005349E3185A1E93418022120494465B42B0
:101E20009B0D504A9B05634413604F4A1360180092
:101E30008A689043FBD1494B4C4AE31859424B41C5
:101E400080215B0049000620995200F0C9FA290060
:101E5000C00000F07DFCC30932D140220121904630
:101E60006162A362266BF30736D427008025E36AFC
:101E700000232C376D013D432B600620266300F0C4
:101E8000AFFA4146800000F063FC236B06009846E1
:101E9000DB073BD46023E26A5A400E3313402B60C9
:101EA00043462363802310229B013B431A60304B3F
:101EB00023630323A3643000C0BCB946B046F8BD19
:101EC0002C4A93423FD900232B492C4A6162A362DA
:101ED000266B9046F307C8D52200C02330329B0101
:101EE0001343234A06201A60656AA36AAD01ED1800
:101EF00000F076FA224900F02BFCAD020100280028
:101F000000F026FC0021FFF799FCAEE72200C02379
:101F100030329B011343164A06201A60636AA26A94
:101F20009B019946914400F05BFA4B4614499B0291
:101F3000994600F00DFC0100484600F009FC002124
:101F4000FFF77CFCA6E77F22990188460240013218
:101F5000520819009044130082E7C0460080FCBF7D
:101F600000C0004000E0004000F00040C01E002023
:101F700001030000FEFF0000FFFF0000C0FF3F0064
:101F80004E0E0000F8B5040006200D0000F028FAFF
:101F90002900C00000F0DCFBC30924D0224A934290
:101FA00039D900232149224E6162A362256BEB07D8
:101FB00020D52200C02330329B0113431D4A062046
:101FC0001A60676AA36ABF01FF1800F009FA1A498C
:101FD00000F0BEFBBF020100380000F0B9FB002199
:101FE000FFF72CFC06E0402601216162A362256B0D
:101FF000EB07DED4E36A220080232C325B0113431B
:10200000002206201A60256300F0EAF93100800002
:1020100000F09EFBF8BD7F220240013252089E0173
:102020001900B6181300E0E7FEFF0000FFFF0000F4
:10203000C0FF3F00010300004E0E00000539013AC9
:10204000F8B5D2004C0105001443002B06D0013B2B
:102050005A4253419B00234302241C432E6BF30737
:102060000BD46E22EB6A290063401A4080232C3186
:102070005B010B431A602E63F8BD2A00C023303287
:102080009B0113430A4A06201A606F6AAB6ABF01BC
:10209000FF1800F0A5F9074900F05AFBBF02010044
:1020A000380000F055FB0021FFF7C8FBD9E7C04618
:1020B000010300004E0E0000F8B5066B04000D0190
:1020C000F3070BD4E36A22005D4010231D408023F8
:1020D0002C325B0113431D602663F8BD0200C02350
:1020E00030329B0113430A4A1A60476A836ABF0170
:1020F0000620FF1800F074F9064900F029FBBF0222
:102100000100380000F024FB0021FFF797FBD9E71E
:10211000010300004E0E000010B50C2082B000F04C
:10212000B7F9FEF707FC002810D08B4B8B488B4982
:102130008B4A186059609860D9601861596198613C
:10214000D961186259625A6202B010BD854CA0670D
:1021500000F0F4F90122844B1A60636C012BFCD16E
:102160000322824B1A607F4A936B012BFCD101330F
:1021700001217F4A7F480093043300F037F905239B
:102180007D4A009301217D4800F030F97C4B5A686C
:10219000FF2A02D8802252005A608022734B6E4C74
:1021A00012011A602169002907D0606900F0D0FA95
:1021B000013043001B18033BFDD2E022704B7148F5
:1021C00019680A40026002221968514001320A402F
:1021D000042102609A681142FCD080216A4A0901F8
:1021E0001160802252005A60684B2361684B596825
:1021F000FF2900D85A60032201215B4B1A60644A10
:1022000093681942FCD0E0231068034061480360E2
:10221000126803234A40022113405D4A0360936819
:102220001942FCD080215C4B0901196080215B4B75
:102230004900516063615A4B5A68FF2A00D85960BF
:102240008022584B12011A60E169002907D06069A9
:1022500000F07EFA013043001B18033BFDD2E0235F
:102260004F4A11680B4050490B6080214F4B0901C8
:1022700019608021394B49005160E3614C4B5A6829
:10228000FF2A00D8596080224A4B12011A60216A45
:10229000002907D0606900F05BFA013043001B1889
:1022A000033BFDD2E023424A11680B4042490B60D8
:1022B0008021424B0901196080235B00536080221A
:1022C000264BD20223623E4B5968914200D25A609B
:1022D00080223C4B12011A60616A002907D06069B4
:1022E00000F036FA013043001B18033BFDD2E02317
:1022F000334A11680B4034490B608021334B09018C
:1023000019608023DB025360154B6362304B5A68BF
:10231000FF2A02D8802252005A6080222D4B1201DF
:102320001A60A169002907D0606900F011FA013034
:1023300043001B18033BFDD2E023254A11680B40E4
:1023400025490B608021254B0901196080235B0022
:102350005360124BA361F7E6E80E0020006CDC022C
:102360001BB70000008000403CB0004030B000408F
:10237000002F685900800240008C864700C0024050
:10238000308000403090004030A00040001BB7007B
:102390003C8000403C9000403CA000404059730706
:1023A0005480004054B000405490004054A000407D
:1023B0006080004060B000406090004060A000403D
:1023C0006C8000406CB000406C9000406CA00040FD
:1023D0004880004048B000404890004048A000407D
:1023E000014B8000C0587047E80E0020F8B504008B
:1023F00022481E0017000D0000F0AAF90100380065
:1024000000F0A6F9069B36041B031E432368002B2D
:1024100022DB1B4B1B49E3185A1E93418022920179
:1024200094465B421B0B184A1B0363441360174A14
:1024300013601F008A689743FBD1C022231D9201BD
:102440001A4321232560A06013602368002BFCDA67
:102450000823E6601360F8BD3F2322681340AB42B7
:10246000D7D1A3681B051B0D8342D2D1EE22E368AE
:10247000D2021340B342CCD1EDE7C046001BB700F7
:102480000040FDBF00C0004000E0004000F0004000
:102490008023024A9B000343D362704700800540BB
:1024A00010B580241C4BE4051C6000281AD00123C1
:1024B0001A4C18431A4BDC611A4C44401C62596296
:1024C00098628021144BC9051960174817490860A4
:1024D000E021C9041960002A07D18022144B12069A
:1024E0001A6010BD0E4BD861EBE753019B1A9B009D
:1024F0009A18802312015B049A4209D213000D49F5
:102500000B60074B5A608022094BD2051A60E8E73E
:10251000094B1A00F3E7C04600B00540D3C007B02E
:10252000008005402D3FF84FFCFF010008200140CE
:1025300000A00540F81B0020FFFFFF00AA23064A69
:102540001B0113602F230549D360054B19605368A5
:10255000002BFCDA7047C0460040024000B0FA0091
:10256000006002402C4B2D4A70B51A602C4A2D4B4E
:102570002D491A6014008B689C43FBD12B4D2C4EC7
:10258000B54208D2013E761BB60808CD9847230015
:102590000134B342F9D1FFF7BFFD264A214B1A603F
:1025A000214A9368DB43DB01DD09002BF9D140228E
:1025B000214B224C224E9A675A671A67DA66B44258
:1025C00008D223682000002B20D00834FEF72CFD11
:1025D000B442F6D31B4C1C4EC022B168200000F060
:1025E000AFF9B460FEF71EFAFEF7E0FCFEF7D4FE8A
:1025F000164C174EB44208D2013E361BB60808CC22
:1026000098472B0001359E42F9D170BD0834FEF782
:10261000FDFCB442D5D3DDE700E00040BFCDFBFEBA
:10262000FE7F3C0000F0004000C00040D00E0020C3
:10263000E00E0020FFFFFF0100F00140C80E002067
:10264000D00E00200000002000ED00E0E00E002091
:10265000E80E002000BEFDE710B5FFF7FBFFC04607
:102660000FB400B5084883B000F006FA049B002BB5
:1026700007D005A91800019100F018F8034800F0F0
:10268000FBF90120FFF7E6FFA0510010B051001048
:1026900010B50148FFF7E4FFB451001010B5002851
:1026A00000D110BD00F09CF9FBE7C04610B5094A07
:1026B0000300146884B0002C08D001220091064861
:1026C000524203A9A047012004B010BD00F0D4F984
:1026D0000020F9E7F41B00209D260010014804218A
:1026E000014B1847600E00200D270010142310B571
:1026F0000100188804331B88984710BD162310B5B5
:102700000100188802331B88984710BDF8B547466A
:10271000CE4680B50F1E19D0142399460433040009
:102720000025012698464B461888434621681B8899
:10273000984701C4431E9841013540420640AF42CC
:10274000F1D13000C0BCB946B046F8BD0126F8E76B
:10275000114A936F9B0813D210665166002905D069
:10276000FFE7FFE7FFE7516F106F704704B50028E0
:1027700001D00020C04302F097FC002104BDC046F8
:10278000F0B5146E556E576F166FFFF7E5FF1466C0
:10279000556657671667F0BD000000D0132370B56B
:1027A0001D78012D15D010DD1D48FFF7A7FF1D4C2A
:1027B00001008022200000F0C3F8022D2DD01A481D
:1027C000FFF794FF194B186070BD194B154CA364AB
:1027D000F5E7174B134C23606360A360E36023614C
:1027E0006361A361E36123626362A362E3622363C3
:1027F0006363A363E36323646364A364E3642365A3
:102800006365A365E36523666366A366E366236782
:102810006367A367E367A364D1E7054BA364CEE7CF
:1028200053440000181000204C3300009C1C002072
:102830003528001007B5604601880A0A0230DF2AF1
:10284000FAD1C9B2820804D3028840880004104338
:1028500000E00068014A5050039007BD18100020A6
:1028600051434343C9188C46110C83B24B4310B4F7
:10287000040C614392B280B2504362431C041B0CAF
:10288000001910BC59411304120CC0185141614485
:1028900070470000132310B512481C78FFF72EFF75
:1028A0000100012C0AD003DD80220F4800F048F817
:1028B0000E48FFF71BFF0E4B186010BD0A4C542248
:1028C000200000F03DF80B4B6365A365E3652366CC
:1028D0006366A366E36623676367A367E3672362B0
:1028E000E361E5E753460000181100204C33000077
:1028F0009C1C0020F928001007B5604601880A0AD0
:102900000230DF2AFAD1C9B2820804D30288408893
:102910000004104300E00068014A5050039007BDD6
:102920001811002001480421014B1847700E0020A7
:102930000D270010014B1B6818470000700E002087
:10294000014B5B6818470000700E0020F0B5C646CA
:1029500000B5437D07000D001600002B38D0002A7B
:102960002EDD00216A1E90466A5C037D4C1C00200F
:102970000A2A0CD0A64216D043461B5D21000D3B0F
:102980005A4253416A5CDBB24C1C0A2AF2D1002B3A
:10299000F0D1884217DB022110483B689847A642D5
:1029A00007D02000E8E7864203DD311A3B6828188B
:1029B0009847AD19013D2B780D3B5A4253413B7569
:1029C00080BCB846F0BD091A3B6828189847E2E772
:1029D0000368110028009847F2E7C046AC54001085
:1029E000F0B5CE46474680B583B06B460600DD1D88
:1029F0002870FEF719FF00231A4A12184B41802154
:102A000009068B4202D30122174B52421749080094
:102A1000884602F069FB164B81461C68002C14D0D6
:102A2000144F02E02469002C0FD02368002BF9D04A
:102A30003B68002B01D0A342F4D1200001222900E1
:102A4000FFF784FF2469002CEFD14B46002B05D102
:102A5000300003B0C0BCB946B046F0BD404602F0FD
:102A60001BFBF5E740420F00FFFFFF7FC80E002071
:102A7000E4170020EC170020F0B5DE4657464E461E
:102A80004546E0B585B0070002F0C6FA0600FEF73D
:102A9000CBFE00232B4A12184B41802109068B42A2
:102AA00002D30122284B5242284908008B4602F0EB
:102AB0001BFB274B01901C689A46002C3BD0254BF2
:102AC000984602ABDD1D0A23994602E02469002CDA
:102AD00017D02368002BF9D043461B68002B01D088
:102AE0009C42F3D1200032003900FFF72FFF4B4604
:102AF0002000012229002B70FFF728FF2469002CF9
:102B0000E7D1019B002B18D153461C68002C06D03E
:102B10006368002B0BD098472469002CF8D1300053
:102B200005B0F0BCBB46B246A946A046F0BD24693C
:102B3000002CEDD1F3E70028F1D0584602F0ACFAB2
:102B4000E2E7C04640420F00FFFFFF7FC80E0020B3
:102B5000E4170020EC1700200A4A1368002B05D167
:102B60000CE01A001B691032002B07D09842F8D1F4
:102B7000002902D103691360016170470029FCD06C
:102B80001060FAE7E417002010B500F0D9F910BD85
:102B90007047C0460022014B1A707047DA1E0020B1
:102BA0004B790020FF2B0BD18B79002B08D1CB79EF
:102BB000012B05D1082A03D9024B8A7809301A70F3
:102BC0007047C046DA1E00200120704770B5012909
:102BD00001D0012070BD13495379107909781B0287
:102BE000034300209942F5D15378012B08D0022BE2
:102BF000F0D1002064220021FFF752FC0120E9E718
:102C00009478D278050012021443D20502D5620AE4
:102C100093401D000448FFF769FD7F210300214018
:102C200028009847DA1E0020554200000123037057
:102C300000487047B05400104B780A781B021343C9
:102C40008A7810B512041A43CB781B0613439622D8
:102C5000D200934200D010BD0348FFF747FD00218A
:102C6000030008009847C04655420000024B186018
:102C7000024B19607047C0466C1700207017002087
:102C800010B5024B1878FDF70BFF10BDDB1E0020BE
:102C9000114B70B51A68002A1AD0EFF3108172B682
:102CA00010680028FCD0BFF35F8F00200B4A5960EA
:102CB00010701B68BFF35F8F186081F310880024C9
:102CC0000025074B1878FDF7EBFE2900200070BDAA
:102CD000FA240025A400F4E77C1C0020DC1E002060
:102CE000DB1E002070B5040000200E0001F0E8FAA1
:102CF000002836D0002001F0FBFA002831D0FEF782
:102D000093FD0023184A12184B41802109068B427B
:102D100016D2164D280002F0E7F9002821D0002035
:102D200001F0CEFA00280FD101200021404200F02E
:102D3000C1FC03246442280002F0AEF9200070BDFB
:102D400001220B4B5242E4E7002001F0D1FA0028A7
:102D5000EAD021003200002001F0D6FA041EEAD1A8
:102D6000E7E703246442E9E740420F00A81E002081
:102D7000FFFFFF7FF8B5DE46574680B505000C0023
:102D8000FEF752FD0023374A12184B4180210906F5
:102D90008B4202D30122344B5242344908008A4606
:102DA00002F0A2F9002803D1C0BCBB46B246F8BD70
:102DB000002001F085FA00284AD00026002C43DDCF
:102DC0002B4B9B4614E0A919002001F011FB0700D2
:102DD00001200021404200F06DFC002001F0CCFAFF
:102DE000FEF722FD224BF61918605960B4422BDD24
:102DF000002001F017FBA71B0200B84200DD3A00DB
:102E0000002AE0D101200021404200F053FC0020C4
:102E100001F0B2FA002001F053FA002814D000208B
:102E200001F000FB0028E1D1FEF7FEFC5B460F003D
:102E30001A685B68002184460E4812184B419F4275
:102E400002D8D3D19445D1D9504602F025F9ABE749
:102E500000200021064B18605960504602F01CF912
:102E6000A2E7C04640420F00FFFFFF7FA81E0020E0
:102E70001010002020A1070010B5244C84B00021C0
:102E8000200002F019F900281CD1214B1A68002AF1
:102E900016D0EFF3108172B610680028FCD0BFF393
:102EA0005F8F01241B48596002781B68D2B20470FE
:102EB000BFF35F8F0020186081F31088002A0AD0CA
:102EC00004B010BD01200021404200F0F3FB2000BF
:102ED00002F0E2F8F4E7FEF795FA0400FEF7A4FC2E
:102EE000FA220023920012184B41802109068B42DE
:102EF00002D30122084B524201210291002101918B
:102F0000064920000091FEF781FAD9E7A81E0020AB
:102F10007C1C0020DC1E0020FFFFFF7F912C001096
:102F2000054B10B51868002804D0044B002219681E
:102F300001F036F810BDC0466C1700207017002055
:102F4000D02310B51B0684B01C68FEF75BFAFEF7B1
:102F50001BFBA04202D0002004B010BD274B1B7801
:102F600001F042FC2648FEF751F80120FEF730F848
:102F7000FF23244C244920701840FDF7B7FD20782A
:102F80000121FDF77BFD0520FDF792FD002827D1EB
:102F9000FEF738FA0400FEF747FCFA2200239200FD
:102FA00012184B41802109068B4202D30122174B94
:102FB0005242012102910021019115492000009106
:102FC000FEF724FA0822040000211248FFF7B2FCA1
:102FD000002CC0DB10480121FFF7BEFD0120BBE73C
:102FE00000220E490520FDF7ABFDFDF729FD094B39
:102FF00001001800FEF734F8ECE7C0461456001044
:10300000A81E0020DB1E0020792E0010FFFFFF7F8E
:10301000912C00107C1C0020800E0020812C0010C0
:10302000004870474055001000487047EC540010AD
:1030300010B5040017480378002B20D0002C06D1CF
:10304000154B16484380063BFF3B038010BD052C03
:1030500019D8134BA400E05812490123013804E0A9
:1030600001330A800231142B0FD0C25C002AF7D141
:10307000C022DBB25B00920008481343E5E7112150
:1030800000F01AF8DAE70020E0E7CA2303489B00C3
:10309000DBE7C046C41E002009040000BC17002066
:1030A000D4540010BE17002010B5024800F0D8F824
:1030B00010BDC046941C002030B54B1E012900D124
:1030C000A7E0664A11780D092C0030349F2900D9F9
:1030D000A2E00470012B00D1BEE00F211478214042
:1030E0000C003034092900D998E04470022B00D13B
:1030F000B2E054782509290030319F2C00D990E0A6
:103100008170032B00D1A7E00F2121400C00303447
:10311000092900D987E0C470042B00D19CE0947881
:103120002509290030319F2C00D97FE00171052B42
:1031300000D191E00F2121400C003034092900D941
:1031400076E04471062B00D186E0D4782509290069
:1031500030319F2C00D96EE08171072B00D17BE0CC
:103160000F2121400C003034092966D8C471082B86
:1031700000D171E014792509290030319F2C5FD8E6
:103180000172092B68D00F2121400C00303409292D
:1031900058D844720A2B5FD0547925092900303160
:1031A0009F2C52D881720B2B56D00F2121400C003E
:1031B000303409294BD8C4720C2B4DD09479250991
:1031C000290030319F2C00D9073101730D2B43D0DA
:1031D0000F2121400C003034092901D937310C006E
:1031E00044730E2B38D0D1790C09220030329F293C
:1031F00000D9073282730F2B2ED00F220A40110004
:103200003731092A01D830321100C173102B23D075
:1032100010300023037030BD07345AE737310C00FB
:1032200063E707316CE737310C0074E707317DE75E
:1032300037310C0085E707318EE737310C0095E711
:1032400007319DE737310C00A3E70731AAE7373193
:103250000C00C4720C2BB1D1C018DAE7941C00200A
:1032600010B588B004000D2200216846FFF762FB0C
:103270000D22002104A8FFF75DFB4B236A46684638
:10328000137004A90D2201F0FFFE15210822200071
:103290006944FFF755FB08B010BDC04610B50121C9
:1032A0000520FDF7EBFB10BD10B500220021024800
:1032B00000F058F910BDC046101800208022024BC3
:1032C0005202DA647047C04600201150F0B5C6467D
:1032D00000B5060000F020F90C231B4DFF22AB6760
:1032E00005201A49FDF72CFC40239846184C402233
:1032F00000212000FFF71EFB4346012723832121E5
:103300000023144A6770A260136063545F316184C4
:1033100041462187053963540F4A10496360E260D2
:10332000A1620B606362E26201F0CEFE80239B0526
:103330002F64EB6490230A4A3000EA50FFF7BEFF87
:1033400080BCB846F0BDC04600001150A10400206A
:10335000F017002084001050000110508000105021
:1033600010D001000B785B0602D14B78052B00D002
:1033700070478A78014B1A60FAE7C0460000115086
:10338000F0B5C64600B5CC7888780A794B797F21AC
:10339000A40701401B02C50913434F00A20F1400EC
:1033A000324E7A195201B218907001206840507064
:1033B00000205B055B0DD0701383D4768046CA0075
:1033C000012D33D02A488446880162448446B4449F
:1033D0006046826040461060002933D0254AC9000B
:1033E00090466246414451603F223F339343022C52
:1033F00000D15B0020487A1901685201B218D160EF
:103400001E4ACB18036051405A40802388465B0116
:103410009A4228D84346A4061C4380237F197F0183
:10342000F61972681B062343136011E014488446A2
:10343000880162448446B44460468262404610601B
:10344000002909D100236D0175196B600D4BEB60EC
:10345000012080BCB846F0BD084AC90090466246CB
:1034600041445162C0E7FFF713F9D3E7F01700209A
:103470008400105004001050601C00200000105008
:10348000800010500001105010B501F01DFE10BD5D
:1034900010B57F200C0020404000E4091100001905
:1034A0001A00034B4001C01800F05CF8012010BD69
:1034B000F01700207F23180010B50840CA090B42FE
:1034C00003D107497D3B9B1A8B6640008018802200
:1034D000044B40010021C018120101F015FE10BD7F
:1034E00000201150F01700207F22130010B50B4070
:1034F0000A4200D110BDC9095B005B1804485B019A
:10350000C018002300220349C37001F0FDFDF1E75C
:10351000F0170020FFF7FFFF80220D4B520410B57B
:103520001A600C4B0C491A6010008B689843FBD151
:103530000A4C9C2200212000FFF7FCF98022002188
:1035400052010748FFF7F6F90923636710BDC0462B
:1035500000E0004000F0004000C0004000001150BA
:1035600000001050002310B5C3820133828283769D
:103570000161040001F080FD002804D08021902327
:10358000074A8902D150200001F0C6FD002802D070
:103590000123237710BD200001F0AEFDFAE7C046FD
:1035A00000201150024B5878431E9841C0B270471A
:1035B00040150020024B18784007C00F7047C046E6
:1035C00040150020034B1878FF38431E9841C0B2C5
:1035D0007047C046BC0E0020F8B5CE46474680B5C1
:1035E0002A4E05003378FF2B01D001203DE0532205
:1035F00000212748FFF79EF9264C2000FDF706FD25
:10360000254B1C60254C2000143CFDF71BFD2000C1
:1036100001F0CCFB224B234F1C60234B9846002F1C
:103620001ED01800FFF702FB204B186043461B78A2
:103630001F4A00249146002F14D04A46A3421AD8AC
:103640009047434601341B78E4B2A342F3D22800EA
:103650003570FFF73BFE2800FFF720FE012004E055
:103660001B78E5E7002C04D00020C0BCB946B0466A
:10367000F8BD0F4AE4E70D4A630012681B19DB002E
:10368000D318002BF0D01A68DAE7C046BC0E002031
:1036900040150020F814002094150020B40E0020DE
:1036A000981500202D2C0010D51E00201812002087
:1036B0003D440010F0B5DE4657464E464546E0B55F
:1036C00091B001F097F8002800D1FCE0C34BC44E44
:1036D0009946C44B0DAC0293C34B9B464B4601939A
:1036E00035686A69EFF3108172B61368002BFCD05D
:1036F000BFF35F8FA9612800210001F085F96A6995
:10370000AB69BFF35F8F0021116083F3108800283D
:1037100000D1D8E06378082BE2D8019A9B00D358F7
:103720009F466368002BDBD0A0689847D8E77F20CE
:103730002179AC4D08404300CA09EB189B181D00C5
:1037400001273035EA78BA43EA70EA780337BA439A
:10375000EA70002800D1F2E0A44FDB7C002F06D0F5
:10376000A34A1278934200D2F1E09B1ADBB2002BFD
:1037700000D0A8E09F4DA36862792078A847AFE702
:103780000122984D01202B78042113432B70332301
:10379000EA5C8243EA54EA5C8A43EA540133EA5C15
:1037A0008243EA54EA5C00208A43EA5423789A462A
:1037B00000F0F8FC602223791A40602A00D1B5E0BD
:1037C000402A00D1AFE0DB06DB0E012B00D1D3E0B5
:1037D000022B00D120E1002B00D0A7E0202A00D14D
:1037E00053E1002A00D0A1E06379092B00D99DE0C4
:1037F000814A9B00D3589F46029B1B78DB0700D46D
:103800006EE77E4B002B00D16AE700E000BF67E760
:10381000744D2B78DB0700D462E7794B002B00D185
:103820005EE728780007C00F00E000BF58E70025DA
:1038300023786E4F9A466E4B98461B78002F49D0DE
:103840005A46AB4263D850469047434601351B78F1
:10385000EDB2AB42F2D2634D532200212800FFF7B4
:1038600069F81022FF21E81CFFF764F828002022E5
:10387000FF211330FFF75EF82EE0002523785B4F21
:103880009A465B4B98461B78002F2ED05A469D4295
:1038900033D350469047434601351B78EDB2AB42D7
:1038A000F2D2504D532200212800FFF743F8102296
:1038B000FF21E81CFFF73EF828002022FF211330EB
:1038C000FFF738F814E011B0F0BCBB46B246A94689
:1038D000A046F0BD002D38D000F05AFC494B002B1B
:1038E00000D1FDE600E000BFFAE6002D19D03D4D05
:1038F00000F04EFC2379AB70F2E6434A6B0012688D
:103900005B19DB00D318002BF1D05A68C1E73E4A9F
:103910006B0012685B19DB00D318002BDCD05A68EF
:1039200091E7314AB5E7394800281AD120780021BB
:10393000FFF7C0FD80212078FFF7BCFDD0E6A3682B
:103940006279207800F042FCCAE6274A7BE72E4ADB
:1039500058001268C318DB00D318002BB3D01D69C0
:1039600009E700F01FFC012150460EAA00E000BF4D
:10397000002800D0B4E6D9E7237A0F2BD6D81B4F06
:10398000EB18DB78002F06D0194A1278934200D248
:103990009CE09B1ADBB2002BC8D11D481D4D00F0E6
:1039A00001FC01215046EB680EAA9847002800D080
:1039B00096E66022150023791D401A42B6D163793C
:1039C0000A3B012BB2D800F0EDFB63790A2B00D142
:1039D0007DE150460EA900F06FFB81E654550010C2
:1039E0009815002040150020B94400102D2C00101F
:1039F000D51E0020AD4600107855001000000000D4
:103A0000000000000000000018120020000000006C
:103A1000C9450010E05500107023217A0B4285D172
:103A2000C80984460F330B405B00E8186044C07C33
:103A3000B14F8046002F07D0B0480078804550D362
:103A40004746381AC0B28046404600283AD1002A7C
:103A500000D0F5E0AA4A9046677902203A008243F6
:103A6000012A00D1F0E0002F00D05FE7EB1863449B
:103A70003033DB780CAA9B07DB0F023213805046F1
:103A800002230EA900F02EFB2AE6237A0F2B00D981
:103A90004CE7994FEB18DB78002F06D0974A127845
:103AA000934200D2F3E09B1ADBB2002B00D03DE73B
:103AB0009448934D00F076FB01215046EB680EAA26
:103AC000984755E79046002AC6D02FE78E4A5900FE
:103AD0001568CB18DB00ED18002D00D126E7E8684B
:103AE0005DE7474688487F00006847448046FF00FE
:103AF000B844002AB0D04346002B00D116E7D8685E
:103B000000F050FB434601215046DB680EAA98475F
:103B10002EE7A37903931A006B789A4207D06B784B
:103B2000002B00D058E1039B002B00D0F8E0039B52
:103B300050460EA96B7000F0BFFAD1E56B780CAA65
:103B400002321370504601230EA900F0CBFAC7E5EC
:103B5000E3881A0AD8B20F2A00D9E7E66B49930026
:103B6000CB589F460EA800F023FB5046A179FFF7E3
:103B70009BFB02222B7813432B70B1E5E388012BCA
:103B800000D0D3E608222B78504693430EA92B7021
:103B900000F092FAA4E5022029780CAB9A1C8B065F
:103BA0008908DB0F01400B4368E7E388012B00D055
:103BB000BCE608222B78504613430EA92B7000F068
:103BC0007BFA8DE5524B002B00D1AFE600E000BF41
:103BD000021E00D1AAE6D37891781B020B4350460F
:103BE0000EA900F07FFAC3E64A4B002B00D19DE6F8
:103BF00000E000BF021E00D198E6504613780EA9DF
:103C000000F070FAB4E62189FFF712FA021EF4D12F
:103C10008CE6022A00D12DE13F4B002B00D185E636
:103C200000E000BF0200002A00D17FE6D3E7FFF7E3
:103C3000F7F9122302000EA9504600F053FA97E656
:103C40002F4B304898465BE7E288002A09D1334A77
:103C50001078012F26D0EF1867443037FB789B0788
:103C60003ED54346002B00D13AE5D86800F09AFAD9
:103C700043460121DB680EAA50469847002000F019
:103C800091FA3423EB5CDB0700D529E5A1E61E4A57
:103C900059001568CB18DB00ED18002D00D145E662
:103CA000E86807E730229146EB18634499444B4695
:103CB000DB789B07D5D5FFF717FC4B460222DB7854
:103CC00093434A46D370D378BB43D370C9E70CAB58
:103CD0009A1C504601230EA9157000F003FAFFE468
:103CE000FFF7E8FB0222FB7813430122FB70FB780D
:103CF0001343FB70B5E7C0462D2C0010D51E0020E5
:103D0000E0550010C945001018120020A055001001
:103D1000000000000000000000000000BC0E0020B9
:103D2000581EC0B2FFF780F9002800D1FEE54378A5
:103D30000793022B00D0F9E50121C279B146931116
:103D400052110B400A4012015B0113432A782F31B4
:103D50008A4313432B700923984680444746A8465C
:103D6000C37882781B021343C31804935C4B0993F6
:103D7000049BBB4200D881E07B7801220B2B02D14F
:103D80003B78FA78FF187B78042B23D10025049B1D
:103D90000B92DB1B9BB20593524B19780693524B47
:103DA0000A93524B08930A9B002B52D0099B089E02
:103DB0008D4245D339005046059A984784460828D5
:103DC00002D9059A824262D2069B01351978EDB27A
:103DD000A942E8D24E46A9E55046FFF755FB00221E
:103DE0009146434AAB7805922A004D46914604938A
:103DF0003C4B3D4F98461B78002F1BD0059A9D42A7
:103E00002CD350469047434601351B78EDB2AB4268
:103E1000F2D24D46532200212800FEF78BFD1022DE
:103E2000FF213448FEF786FD2022FF213248FEF7AD
:103E300081FD02E0002D1BD04D46049BAB7072E665
:103E400018232E4A6B431668F618002EC2D0B368AA
:103E5000B0E7002DBED1224B244EABE7274A6B00C2
:103E600012685B19DB00D318002BE5D05A68C8E74D
:103E70001F4AC6E7FFF7D8F80200D4E6204B4546B4
:103E80004E46002B00D152E600E000BF4FE60B9AF1
:103E9000012A1FD00021464609E0BB78CB18DBB2CF
:103EA000F318D878FF2895D10131DD70C9B291425D
:103EB000F3D1B04666462B00390032000E4800F0C0
:103EC0001FFDB446069B67441B78AB4200D34FE707
:103ED0004E462BE5024BB1689942DBD1079AD9E7F0
:103EE000E5440010D51E00202D2C0010E0550010D8
:103EF000B94400104315002053150020181200206B
:103F000000000000F8B557464E46DE4645460C0018
:103F1000E0B516001F00002A3CD01F4B00259A4632
:103F2000702399461D4B9B4617E05B46200099780D
:103F300000F0A8FC00281FD021004046FFF720FA1F
:103F4000002819D0A378DA09012A1CD00A9A013571
:103F500013702378E418B5421CDA6378052B0BD173
:103F6000E3789B079B0FBB4206D153464A461B781A
:103F70009846A3781A42D8D00020F0BCBB46B2467F
:103F8000A946A046F8BD0B9A013513702378E418B2
:103F9000B542E2DB0120F0E7BC0E00204015002016
:103FA000802310B51B0184B001930E4B02901C6856
:103FB00003916269EFF3108372B611680029FCD097
:103FC000BFF35F8FA361200001A900F0DFFD6269EC
:103FD000A369BFF35F8F0021116083F3108804B0E1
:103FE00010BDC04698150020702270B5094B0C001A
:103FF0001D788B781A4201D0002070BD064B20003E
:10400000997800F03FFC0028F6D021002800FFF747
:10401000B7F9F2E7BC0E0020401500200B007F200E
:1040200010B51840DB0933334000044AC018044B74
:104030001168C01800F0E2FB10BDC04694150020C6
:10404000401500200B007F2010B51840DB093333EA
:104050004000044AC018044B1168C01800F0F6FB79
:1040600010BDC046941500204015002070B57F2477
:104070000F480C4064000419CD0964193034E0780D
:10408000C00701D5002070BD0126E57809483543F9
:104090000078E570FFF7FCF90028F4D10122E378FD
:1040A0009343E370E37803329343E370EAE7C04657
:1040B00040150020BC0E002070B5094C06000822F7
:1040C00020000D00FEF73CFC00238021E360A3608C
:1040D0002B783000994300220023FFF7C7FF70BD03
:1040E000E4140020F8B5CE4647469046264E80B5EB
:1040F0008146082230000D001F00FEF721FC4346D8
:10410000B3600023F381EC79AB7924021C43231CB8
:10411000BC4200D93B1C9FB2B381002C0ED0002FB3
:1041200018D04346002B2CD03B1C402F1BD89FB2ED
:1041300033787F2B1CD80021144A0FE080212B7884
:104140000022994348460023FFF790FFC0BCB946C0
:10415000B046F8BD7F230022317899433B004846A2
:10416000FFF784FFF2E740239FB233787F2BE2D939
:10417000064C3A0041462000FEF7E2FB8021220077
:10418000ECE70020E2E7C046E41400200015002020
:1041900010B5142200210248FEF7CCFB10BDC0462A
:1041A000E4140020014B18617047C046E41400205D
:1041B00010B5054C010008222000FEF7C1FB0023CA
:1041C000A360E36010BDC046E414002070B5394C14
:1041D0001D0023780600DA09C9098A4213D000209D
:1041E000002D00D070BD344B002B03D021003000D7
:1041F000FFF7B8F82369002B03D022000321300019
:1042000098470120EEE7A0687F2B05D8002834D01E
:104210002A002A49FEF794FBE289A1685219E38833
:1042200092B24919E281A160934214D03F2D12D974
:10423000A389981A051C80B240282AD82078ADB2EC
:104240007F2828D800219A4232D01C4A2B00300007
:10425000FFF70CFFC6E72369002B05D022000221DF
:104260003000984700280AD0802123780022994303
:1042700030000023FFF7FAFEB4E70020B2E7002188
:104280003000FFF717F930008021FFF713F9012004
:10429000A8E74025D2E79A4207D0084C2A00200020
:1042A000FEF74EFB80212200D0E780210022CDE7DF
:1042B0000022CBE7E4140020653300100015002035
:1042C00010B50400FFF76EF9002801D1002010BDE1
:1042D000FFF770F90028F9D1B22292006243034B34
:1042E00001309B181B791840F1E7C0461C120020D2
:1042F000B2239B00434310B50248181800F050FB4E
:1043000010BDC0462C120020F0B5B225AD004543CB
:104310002C00C646174F1034E41900B5200092B2A5
:1043200000F0C0FB0600200000F058FB3F2803D837
:10433000300080BCB846F0BD7B190020D978984683
:10434000FFF76CFE0028F3D0200000F047FB3F2869
:104350000AD992239B00EA184346D219D978002043
:104360004023FFF783FEE3E743460020D978FFF7B9
:1043700069FEDDE71C120020F8B50400FFF712F912
:10438000002801D10020F8BDFFF714F90028F9D169
:10439000B2239B005C432500144E2435AD19280040
:1043A00000F0FEFA0028EDD037190020B978FFF7A9
:1043B00035FE0028E6D0A2239B009C466444A41945
:1043C00021002800402200F06DFBB978051E08D0BE
:1043D000030022000020FFF749FE0028D2D0280069
:1043E000D1E70020FFF72EFECCE7C0461C120020CC
:1043F00070B5B224A4004443094B0500E418200022
:1044000092B200F017FC0600200000F0C9FA3F2825
:1044100001D8300070BD2800FFF7AEFFF9E7C046B5
:1044200040120020B2239B00434310B502481818E5
:1044300000F0D4FA10BDC04640120020B222F0B500
:104440001B4C83B0002120009200FEF773FAFF237B
:104450006371184B80260025E38001270823210083
:104460002000760023733200278138310095073B06
:10447000103000F05FFA2100200039313200FF31A6
:1044800001230097243000F055FA8E239B00E61894
:104490003000FCF7BBFD90239B002662E61830003D
:1044A000E561FCF7B3FD2663656303B0F0BDC0466C
:1044B0001C12002000C2FFFF10B5094C052200218C
:1044C0002000FEF737FA20002434103000F06EFC94
:1044D000200000F06BFC0121200000F087FC10BDE3
:1044E0001C120020F0B54B79060083B0022B02D1DC
:1044F0008B79022B03D00025280003B0F0BD2F4F8D
:10450000BB78002BF7D18B7809253B700C780C1900
:104510006378242B0BD1082A02D81FE0AA421DD3AE
:104520002378E4185D196378ADB2242BF6D0052BFF
:1045300031D0042B12D163790A2B0FD1204B27786D
:10454000019301330093022202233000E119FFF7A7
:10455000D9FC0028CFD00E35ED19ADB2194C200092
:1045600000F03CFA3F28C7D92600103E0020F17821
:10457000FFF754FD0028BFD0200000F02FFA3F289D
:1045800017D98E239B00E218F93BF178FF3B0020FE
:10459000FFF76CFDB0E721003000FFF725FD002894
:1045A000A9D0A3787B7023785D19E4186378ADB245
:1045B000BFE7F1780020FFF745FD9DE71C120020C2
:1045C0001E1200202C120020F8B56023140012786F
:1045D000050013400020202B12D12F4A6379277940
:1045E00016781B023B439E420AD16378222B1AD0D5
:1045F00007D8202B3CD0212B02D1012930D001201B
:10460000F8BD232BFCD101293FD00329F7D1234B3F
:10461000002BF4D0E178A37809020020194300E0D0
:1046200000BF0120ECE701292FD00329E7D10125A4
:104630002E00A378E478023924021C43147126402A
:1046400024321000714000F0D1FB154B002BD6D066
:104650006208002031002A4000E000BF0120CFE7BF
:104660000723210028000F4AFFF73CFD0120C7E780
:104670000129F5D00329C2D10B4B002BBFD000205C
:10468000911DFEF7D9FA0120BAE721002800FFF7B3
:1046900013FD0120B4E7C0461C12002000000000FA
:1046A0000000000022120020392C0010F8B5454609
:1046B0005746DE464E46E0B5464D1F00EA78804636
:1046C0000C00AB788A4246D000208B421AD0F0BC56
:1046D000BB46B246A946A046F8BD3F4B002B04D0CE
:1046E000484600F073F900286CD0484600F076F98F
:1046F0003F2807D94E46103E0020F178FFF78EFC88
:10470000002851D1AB78A34201D00120DFE7334B21
:10471000002B02D0002000E000BF0020FFF72CFE9D
:104720000028F2D12E4C200000F03AF90028ECD1FC
:10473000002FEAD0BF06E8D1243C4046A178FFF71D
:104740006DFC0028E1D0002300224046A178FFF74D
:104750008DFC0120BBE792239B00EE1810239B46A3
:10476000AB4431005846BAB200F064FA1D4BD9464A
:10477000002BB2D06B79FF2BAFD0002FADD0F21948
:10478000924603E00136B245A7D06B7932789A425F
:10479000F8D1484600F01AF90028F3D14B46103BF7
:1047A000597900E000BFEDE7484600F017F93F28CF
:1047B0000BD98E2292004023F1784A440020FFF763
:1047C00055FC9FE7FEF7ACFB8FE7F1780020FFF781
:1047D00039FC97E71C120020212F00100000000078
:1047E000401200200000000010B50020FEF7F4FE8B
:1047F00010BDC04610B5FEF7E5FE10BD037870B5DC
:10480000DB0704000E00DD0F002B17D103785B07D8
:1048100001D5280070BD01213000494200F05CFC48
:104820002378DB07DD0F002B0AD123785B0708D440
:104830000422237801251343237002E00025E8E7D2
:104840000025300000F028FCE3E7C04670B50C00FE
:10485000012106004942200000F03EFC33785B074E
:10486000DD0F002B04DB200000F016FC280070BDDB
:104870003378DB0704D40422337893433370F2E7B0
:104880000025F0E7437902791B021343C2785B05E8
:1048900092075B0D920F022A1DD0032A0CD0002034
:1048A000012A08D102394A425141124A94466144D0
:1048B00099424041C0B2704702394A1E91410E4AA6
:1048C000494211408022D20094460020614499421E
:1048D0004041C0B2EFE7022905D0002040229A42B1
:1048E0004041C0B2E7E7054A981843425841C0B278
:1048F000E1E7C046FF03000040FCFFFF00FEFFFFB2
:104900008A1870B5914207D27F264C78052C04D0C6
:104910000C7809198A42F8D870BD34008D782C4083
:1049200064000419ED0963550C7809198A42ECD822
:10493000F2E7C046F0B5C64600B5040006A8057803
:104940008020884617001E000002824226D8E068B8
:10495000002803D00121494200F0BEFB2069002855
:1049600003D00121494200F0B7FB434623607304A2
:104970005B0CED031D430023E0686381A780E580A5
:104980002381002801D000F087FB2069002801D096
:1049900000F082FB012080BCB846F0BD0020FAE7A1
:1049A00010B5048941898288A3B288B28C4207D3AA
:1049B0001B1A9BB2101C9A4200D9181C80B210BD61
:1049C0005100091A5B189BB2F4E7C046038940897D
:1049D000181A43425841C0B27047C04610B5048906
:1049E00041898288A3B288B28C4207D31B1A9BB23A
:1049F00000209A4201D9D21A90B210BD5100091A72
:104A00005B189BB2F4E7C04670B5040000690E0065
:104A1000002803D00121494200F05EFB258960890E
:104A2000A288A9B283B285422CD3CD1AADB2002D93
:104A30002ED0AA4208D2914230D3891A8BB2638118
:104A40009A4203D89B1A9BB29A42FBD9E28821680A
:104A50005204520C53433000C918FDF771FF6389AB
:104A60000125591C89B2A2888B4213D9002152001A
:104A7000891A89B220696181002801D000F00CFBFD
:104A8000280070BD5500ED1A4D19ADB2002DD0D1E2
:104A9000618989B252009142ECDBE9E789188BB257
:104AA0006381CDE7F0B546464F46D646C0B5060011
:104AB000006989469046002803D00121494200F050
:104AC0000BFB31897289B5888BB294B2914254D371
:104AD0001F1BBFB2002F4AD0BD4205D2AB4251D2FC
:104AE0005B199CB22F0074814346B8453DD89FB2F4
:104AF000A54203D8641BA4B2A542FBD9F288316851
:104B00005204520C904662432B1B9BB289184246BA
:104B10009F4225D953439BB21A0048469A46FDF757
:104B20000FFF434648467D1B64195C43316850447F
:104B3000A2B2FDF705FF7189B588CB199BB26A0057
:104B4000994216D99B1A9BB230697381002801D013
:104B500000F0A2FA3800E0BCBA46B146A846F0BD63
:104B600048467A43FDF7ECFEE5E73B1CBFE7738957
:104B70009BB26A009342E7DBE4E76F003F1BDF195B
:104B8000BFB2A7E75B1B9CB2ACE7C046F8B5040018
:104B9000C0680E00002803D00121494200F09CFAB1
:104BA000258920896189A288ADB283B28FB28842FB
:104BB00029D3DB1B9BB29A4209D8E779FF0906D1BA
:104BC000E068002801D000F067FA3800F8BD95428F
:104BD0001ED32B009B1A9BB29342FBD2E288206823
:104BE0005204520C53433100C018FDF7A9FE6B1C50
:104BF0009BB2A2889D4218D9002352009B1A9BB2F7
:104C000001272381DCE75100C91B5B189BB2D2E767
:104C10002B00E28820685204520C53433100C01824
:104C2000FDF78EFE0135A288ABB252009342E7DB5E
:104C3000E4E7C046F0B557464546DE464E46E0B589
:104C4000140005000F0083B0002A75D0C06800284A
:104C500003D00121494200F03FFA2E89E9796A899F
:104C6000AB88B6B292B2C90945D1964200D36DE085
:104C700059008A1AB21892B2002189469A4234D257
:104C80009A1A111C92B2A24200D9211C8AB29146F2
:104C9000EA885204520C90464A46B21892B29246A2
:104CA0004A46D21A92B2934634009E4203D3E41A83
:104CB000A4B29C42FBD24246624328681B1B9BB2B3
:104CC000801842464B4554D34B4639005A43FDF7B2
:104CD00037FEAB885B00B24501D39A4503DB5246F1
:104CE000D31A9BB29A4653462B81E868002825D0F8
:104CF00000F0D2F922E0E9884904490C88469C4238
:104D000027D2964247D3B11A89B28C465800E11A8D
:104D100089B28B4661460919814208DBD11889B2F4
:104D20000E1BB6B28A46B2423BD9361AB6B2A219A7
:104D300092B29246A146B7E700239946484603B08F
:104D4000F0BCBB46B246A946A046F0BDB21A92B22C
:104D500092E700218946002BC7D04146E41A4C4314
:104D60001600D118002289B28A46994693463F1907
:104D70009AE753439BB21A0039005C440193FDF754
:104D8000DFFD414622004A43019B286892B2F91890
:104D9000FDF7D6FD9DE75800811A711889B28C463F
:104DA000B5E7A146B04200DD7EE7BEE710B50400DE
:104DB000C068002803D00121494200F08DF9206924
:104DC000002803D00121494200F086F90023E06861
:104DD00063812381002801D000F05EF9206900285A
:104DE00001D000F059F9012010BDC04670B5040093
:104DF000C0680D00002803D00121494200F06CF981
:104E00002069002803D00121494200F065F97F2183
:104E1000E379ED011940E0682943E171002801D0F0
:104E200000F03AF92069002801D000F035F901209E
:104E300070BDC046F8B5DE4657464E4645468346E9
:104E4000E0B505200C00FDF7CBFA06006008210054
:104E50008019FDF77DFC430098468044070005213A
:104E60004046FDF775FC3B1A9A46204B8146700080
:104E700080199C4234D81E49FDF76AFC451C5B46EC
:104E80001C6800230422E366236801205340023299
:104E90001A4080235B0123431A605346E3614B466B
:104EA000236243464F2B03D950214046FDF750FC67
:104EB000A023E050E36F22005D4080237C322D046C
:104EC0005B0113432D0C1D60012339003000E366A4
:104ED000FDF73EFCF0BCBB46B246A946A046F8BD75
:104EE0000449FDF735FC451CC9E7C0463F420F00A9
:104EF0008096980040787D010F4A70B5821A531E43
:104F00009A410E4BD20008321A600D4B0D4C1A60BC
:104F10001500A3689D432B1EFAD166240268FF3456
:104F20000571D5661460633C8833FF3CD563956397
:104F3000D450FFF77FFF70BDC00E002000E000409E
:104F400000F0004000C00040F0B557464E46DE4637
:104F500045468446E0B583B01F000CAB1878634625
:104F6000914600221B680190DA6601325960DA66C8
:104F7000002F4FDD7A1E904662461279012692027A
:104F8000802493463A004640760280253700002070
:104F900046461021A2469046AD00841B6242544111
:104FA0004A4664423C4000945C46125C2243009CAA
:104FB00022431A615A6B1142FCD052469C58002C75
:104FC00010D1B04221D00022013093468045E4D177
:104FD0006346019A1A7103B0F0BCBB46B246A946BB
:104FE000A046F0BD5A6D012293465A6B2A42FCD06E
:104FF0001A6E5A46002AE6D0002C03D0E30701D4EB
:105000002407E5D402204042E2E7019A002ADAD1DF
:105010009346EAE70020DBE710B583070AD00300D8
:10502000032102E001330B4205D01A78002AF9D19E
:10503000181A10BD030019680C4A0D4C8A188A43CF
:1050400022420FD15968094A04338A188A432242FE
:1050500008D15968054A04338A188A432242F1D09C
:1050600000E001331A78002AFBD1E1E7FFFEFEFEE3
:1050700080808080F8B5C04601B40248844601BCF7
:10508000604700BFB109002001B40248844601BC5A
:10509000604700BFC902002001B40248844601BC39
:1050A000604700BF2D02002001B40248844601BCC5
:1050B000604700BF750D002001B40248844601BC62
:1050C000604700BFC100002001B40248844601BC13
:1050D000604700BF8903002001B40248844601BC38
:1050E000604700BF9D01002001B40248844601BC16
:1050F000604700BF0101002001B40248844601BCA2
:10510000604700BF4D0B002001B40248844601BC3B
:10511000604700BFF50A002001B40248844601BC84
:08512000604700BFD90900201F
:105128000A48656C6C6F2C207561727420696E7406
:10513800657272757074730A000000004E6F2073F8
:1051480070696E6C6F636B73206172652061766144
:10515800696C61626C6500004E6F20757365722022
:10516800495251732061726520617661696C616290
:105178006C650000486172647761726520616C61DA
:10518800726D20256420616C726561647920636C9E
:1051980061696D65640000000A2A2A2A2050414E80
:1051A8004943202A2A2A0A000A000000486172643A
:1051B800206173736572740052656C656173650074
:1051C800626F6F74325F77323571303830000000AB
:1051D800312E352E310000007069636F0000000029
:1051E800554152545F636F6D6D0000004D61792029
:1051F800323020323032340055534220737464699F
:105208006E202F207374646F757400005261737080
:105218006265727279205069000000005069636FFE
:1052280000000000426F61726420434443000000A4
:105238005265736574000000556E68616E646C6534
:10524800642049525120307825780A00657020255D
:10525800642025732077617320616C7265616479BD
:1052680020617661696C61626C65000043616E273C
:105278007420636F6E74696E756520786665722038
:105288006F6E20696E61637469766520657020258C
:1052980064202573000000006F757400696E0000BB
:1052A800000000000000005F000000070007001475
:1052B8007F147F14242A7F2A122313086462364934
:1052C8005522500005030000001C22410000412225
:1052D8001C0014083E081408083E08080050300056
:1052E8000008080808080060600000201008040290
:1052F8003E5149453E00427F4000426151494621A6
:1053080041454B311814127F1027454545393C4A11
:105318004949300171090503364949493606494961
:10532800291E0036360000005636000008142241B7
:10533800001414141414004122140802015109061F
:10534800324979413E7E1111117E7F494949363EE5
:10535800414141227F4141221C7F494949417F09FE
:105368000909013E4149497A7F0808087F00417FC1
:1053780041002040413F017F081422417F404040C6
:10538800407F020C027F7F0408107F3E4141413E6E
:105398007F090909063E4151215E7F0919294646C0
:1053A8004949493101017F01013F4040403F1F20E9
:1053B80040201F3F4038403F6314081463070870BB
:1053C80008076151494543007F4141000204081024
:1053D800200041417F000402010204404040404057
:1053E800000102040020545454787F48444438385B
:1053F80044444420384444487F3854545418087E60
:105408000901020C5252523E7F0804047800447D80
:1054180040002040443D007F1028440000417F4068
:10542800007C041804787C08040478384444443820
:105438007C14141408081414187C7C080404084804
:1054480054545420043F4440203C4040207C1C20BD
:1054580040201C3C4030403C44281028440C50500C
:10546800503C4464544C44000836410000007F001E
:10547800000041360800100808100800060909064F
:1054880006005250D3F07542C05100100600525029
:10549800E182887FC851001006005250BBFF3CB61D
:1054A800E05100100D0A0000912B0010952B001000
:1054B800A12B0010CD2B0010C92B001000000000FC
:1054C8000600525053B4F4A100520010000000002E
:1054D8001452001024520010C41E00202C52001038
:1054E8003852001009025400030100807D080B00A7
:1054F800020202000009040000010202000405245F
:1055080000200105240100010424020205240600EC
:10551800010705810308001009040100020A0000C0
:10552800000705020240000007058202400000094A
:1055380004020000FF00010512010002EF02014011
:105548008A2E0A000001010203010000E036001063
:105558007A3800102E380010E0360010103800108D
:10556800F8370010803700102E370010223700104F
:10557800963B00107C3B00102C390010AA3B001011
:105588002C390010643B0010503B00102C390010DF
:105598003C3B0010123B00102C3900102E3C001030
:1055A800123C0010063C00102C3900102C39001059
:1055B800E83B0010123C00102C3900102C39001068
:1055C8002C3900102C3900102C3900102C390010FF
:1055D8002C390010C43B00103D440010B9440010A1
:1055E800E5440010C9450010AD4600100000000059
:1055F800885400109454001088020010A054001021
:1056080094020010A0020010AC020010C854001050
:1056180003000068EFF3108C72B60268002AFCD011
:10562800BFF35F8F04229A56002A04DB002900D0BA
:105638000A60002004E0D0220120120612681A71C4
:105648001B68BFF35F8F00221A608CF310887047C5
:10565800F0B5C646150000B504001E000268EFF359
:10566800108172B61368002BFCD0BFF35F8F042340
:10567800E356002B2DDB2268BFF35F8F00201060FC
:1056880081F31088D0221206127852B290469A42BC
:1056980003D1002080BCB846F0BD00270BE023688A
:1056A800BFF35F8F1F6081F310882800310000F07E
:1056B8000BFE0028EDD12268EFF3108172B6136853
:1056C800002BFCD0BFF35F8F23797F2BE7D94346AC
:1056D80002E0D0231B061B6823712368BFF35F8F8A
:1056E80000221A6081F310880120D3E7F0B5C6467E
:1056F80000B50D00040000F0EFFDFA2206000F00CF
:10570800002328000021920000F0EEFD80233618C7
:105718004F411B069F4202D30126174F7642D023E2
:105728001B061B68002598460BE02368BFF35F8FB4
:105738001D6081F310883000390000F0C5FD002895
:1057480018D12268EFF3108172B61368002BFCD0D1
:10575800BFF35F8F23797F2BE7D9434623712368F3
:10576800BFF35F8F00221A6081F31088012080BC8C
:10577800B846F0BD0020FAE7FFFFFF7F0268EFF3AD
:10578800108172B61368002BFCD0BFF35F8FFF2324
:1057980003710368BFF35F8F00221A6081F31088DA
:1057A80040BF704710B5084C2378002B0AD18023DE
:1057B800064807495B051A68C25004338B42FAD180
:1057C8000123237010BDC046D71E00206C160010A0
:1057D8000001001010B5014B984710BD6D16002050
:1057E800034B1A68C0239B009343024A1360704717
:1057F8000C8001400C900140054B1A6880239B00E7
:105808005340C02292001340024A13607047C046BA
:105818000C8001400C9001401423F0B5D6464F4649
:1058280046469A46814618880433C0B598460E0005
:105838001B88264914009847534607001888434692
:1058480023491B8898475346050018884346214931
:105858001B8898478046FFF7A5FFB847A847FFF77A
:10586800CBFF221E20D0C02108270220490511E0C5
:10587800002C14D0131B0D2B20D9002D0AD0230087
:10588800002A05D00B6E013A33701300013623430A
:10589800002B09D03D008B6A1D401842E8D1002D2D
:1058A800EDD123001343F5D1FFF79AFFC047FFF767
:1058B80091FFE0BCBA46B146A846F0BD4B461B78FE
:1058C800013C0B6601239C46E144E8E74946000099
:1058D80045580000464300000022154B10B59A6059
:1058E800DA601A615A619A61DA611A625A629A62D6
:1058F800DA621A635A639A63DA631A645A649A64B6
:10590800DA641A655A659A65DA651A665A669A6695
:10591800DA661A675A679A67DA67F03292000021E6
:10592800044800F0E9FC044B044A1A6010BDC04664
:105938000000105030180020601C0020800110501A
:10594800F0B557464E464546DE46E0B5254B0025A0
:105958009F6D012687B0002F23D0234B9946012342
:105968009B46224B984601E0202D1AD032002C008D
:105978000135B2463A40EDB27600002AF4D04B46E3
:1059880052469A655B46640864002B40E41864013B
:105998004444200000F0B8FB002809D153469F4337
:1059A800E2D107B0F0BCBB46B246A946A046F0BD5E
:1059B800E28AA37802A80192002106220630009309
:1059C80000F09AFCE02302A9DB008B80009B019A7F
:1059D8000B7203A80121059200F0BEFB200000F025
:1059E8002BFBDBE70000115000301150F0170020AE
:1059F8009823C84AF0B5D55880232C009B0210265E
:105A080085B01C401D427AD0C34BC44C9A6AC44B23
:105A180000261A603B23E35C022B00D1DFE07B23E6
:105A2800E35C022B00D1B9E1BB23E35C022B00D17C
:105A3800A9E1FB23E35C022B00D199E13C23FF336E
:105A4800E35C022B00D158E17C23FF33E35C022B9B
:105A580000D145E1BC23FF33E35C022B00D132E1E6
:105A6800FC23FF33E35C022B00D11FE1AD4BE35C69
:105A7800022B00D10EE1AC4BE35C022B00D1FDE020
:105A8800AA4BE35C022B00D1ECE0A94BE35C022BB0
:105A980000D1DBE0A74BE35C022B00D1CAE0A64BA8
:105AA800E35C022B00D1ABE0A44BE35C022B00D1FA
:105AB8007FE1A34BE35C022B00D196E1002E08D1D5
:105AC800A04B1B78002B04D180219F4A9033890278
