:020000041000EA
:1000000000B5324B212058609868022188439860DF
:10001000D860186158612E4B002199600221596106
:100020000121F02299502B49196001219960352056
:1000300000F044F80222904214D00621196600F024
:1000400034F8196E01211966002018661A6600F04E
:100050002CF8196E196E196E052000F02FF8012189
:100060000842F9D1002199601B49196000215960AB
:100070001A491B48016001219960EB211966A021F2
:10008000196600F012F800219960164914480160C1
:100090000121996001BC002800D000471248134993
:1000A000086003C880F30888084703B5996A0420EC
:1000B0000142FBD001200142F8D103BD02B5186610
:1000C0001866FFF7F2FF186E186E02BD00000240BE
:1000D000000000180000070000035F00212200005C
:1000E000F4000018222000A00001001008ED00E03C
:1000F00000000000000000000000000074B24E7A12
:1001000000200420F7010010C3010010C5010010F9
:10011000C1010010C1010010C1010010C101001097
:10012000C1010010C1010010C1010010C701001081
:10013000C1010010C1010010C9010010CB01001065
:10014000CD010010CD010010CD010010CD01001037
:10015000CD010010CD010010CD010010CD01001027
:10016000CD010010CD010010CD010010CD01001017
:10017000CD010010CD010010CD010010CD01001007
:10018000CD010010CD010010CD010010CD010010F7
:10019000CD010010CD010010CD010010CD010010E7
:1001A000CD010010CD010010CD010010CD010010D7
:1001B000CD010010CD010010CD010010CD010010C7
:1001C00000BE00BE00BE00BE00BE00BEEFF3058054
:1001D000103800BEF2EB8871483000106C3000100F
:1001E0003402001090A31AE700201F49086006C8D7
:1001F00081F3088810471D48006800282FD10DA4FE
:100200000ECC002902D000F012F8F9E71849194A7B
:10021000002000E001C19142FCD1174988471749ED
:1002200088471749884700BEFDE701C901C29A42C5
:10023000FBD370476C300010C0000020D0030020BA
:100240007C33001000000420000004207C330010E8
:10025000001004200010042000000000704709482E
:1002600001F04AFC0047000008ED00E0000000D06B
:10027000D0030020A00800207119001065030010B1
:10028000651A00105756000006005250ABB3605379
:10029000EC2F001006005250861C0302FC2F0010A9
:1002A000060052505422A29D083000100500525002
:1002B000DE65F4687C330010F8B5C046064807498F
:1002C000091A8B10C90FC91810B5491003D0044B77
:1002D000002B00D0984710BDD0030020D003002091
:1002E00000000000054B10B5002B03D00449054861
:1002F00000E000BFFFF7E2FF10BDC04600000000B5
:1003000054080020802F001070B5050002240F4B08
:100310000380200001F098FC0D4A0E4B01F083FC95
:1003200000220D4B01F061FC01F0E0FC00220B4BC0
:1003300001F052FC00220A4B01F075FC01F09CFC1C
:1003400028530234C82CE4D170BDC046FF01000020
:10035000182D4454FB210940000059400000F03F93
:1003600000F87F40F0B5CE46474680B50120E7B0A3
:10037000D02400F085F8022324066362042000F0F4
:100380007FF810232E49A3622E4802F0FBFC0121C6
:10039000122000F05DF80121132000F059F811201F
:1003A00000F06EF880239B02636201A86361FFF78F
:1003B000ABFF99235B0033AE6B44340098460025B5
:1003C00065AF280001F040FC1F4A204B01F02BFCD8
:1003D00001F052FC00B22080023438800135023F27
:1003E000A045EED10223D02598467D3399462D06AF
:1003F000434601ACAB6149460023E25E93113033C2
:100400000B40694692000B704A70C046C046C04619
:100410008027BF02AF61C046C046C04602220948DD
:1004200002F09EFDC046C046C0466F61C046C04651
:10043000C0460520023400F023FDA642DBD1D7E7F9
:1004400080841E0000C00340448149A7E641344037
:10045000094A10B594464024830063441A68C000DA
:100460006240803414408022520113431C60034BCD
:100470009C466044416010BD04C001400040014002
:100480000123D0228340120693629361094A4021DE
:100490009446830063441A68C0004A40803111408A
:1004A0008022520113431960034B9C46052360448C
:1004B0004360704704C0014000400140024B18688F
:1004C0008007C00F7047C04600C0064070B5EFF30C
:1004D000108C72B60D4D2B68002BFCD0BFF35F8FD4
:1004E0000724CB08C618C05C01230C40A3401C00A5
:1004F0000440034207D118433070BFF35F8F2C6074
:100500008CF3108870BD100001F0B0FA2C0100D0FF
:100510000021044B044ABFF35F8F02C39342FAD118
:100520007047C046000100D0800100D0044A107816
:10053000431CDBB2172B00D9102313707047C04641
:100540001803002001238340002904D0034A1360CC
:10055000034A13607047034A1360FBE780E200E040
:1005600000E100E080E100E0024B10309B68800079
:10057000C058704700ED00E070B50D00EFF3108635
:1005800072B60F4A1368002BFCD0BFF35F8F0D4B80
:1005900010309B6884001B590B4A934203D09D4244
:1005A00001D001F07BFA074B9B681D51BFF35F8FB1
:1005B000BFF35F8F0022024B1A6086F3108870BD74
:1005C000240100D000ED00E0CD010010F0B5DE46C2
:1005D00057464E464546E0B50C0083B0EFF3108811
:1005E00072B65D4A1368002BFCD0BFF35F8F5B4B84
:1005F0005B499A68030010339F00D5598D4239D06A
:10060000A5424AD0574EAA1B2F2A33D80122924620
:10061000824091464846544A12681040019048462C
:10062000524A1060BFF35F8FEFF305829346002AB2
:1006300035D0934201D001F031FA2A0053469A4353
:100640009068844208D175E04B005B189B00F3185A
:100650009868A04234D01A00062151560029F3DAD6
:10066000844253D0019B002B26D04A46404B1A604F
:100670003D4B1A60394B9B68DD51BFF35F8FBFF371
:100680005F8F0022344B1A6088F3108803B0F0BCEF
:10069000BB46B246A946A046F0BD0D00EAE72A00D7
:1006A00053469A4390688442D6D1062010561300D0
:1006B000002809DA0D0031E04A462C4B1A60D9E7D0
:1006C00006201856002822DB4200111889007418F1
:1006D0008A46A1689960E179D971062161569971BC
:1006E000002925DBA488F11A64052415544409194E
:1006F000E0240905490D24022143998013181D4A5D
:100700009B001178F31899711070ABE713005946EC
:10071000002914D1FF3191711749918015490A7848
:100720009A71164A9B1B5B415A43120D0A7099E756
:100730001349E2E70620105613000028C4DA114AD4
:100740001149D21A083A5002400D014399800F49CD
:1007500052080A43DA8085E7240100D000ED00E06A
:10076000CD0100101C03002000E100E080E100E06A
:1007700080E200E09E08002001BDFFFFAAAA000061
:1007800001BD00005603002000F0FFFF00F8FFFF4E
:1007900070B5EFF3058101240443EFF3108C72B6BA
:1007A000214A1368002BFCD0BFF35F8F1F4B05005D
:1007B0001F4AED1A6D416A43120D1E4D8900AE6845
:1007C00052B27658A6421CD00621595691421CD0EE
:1007D00012215956914222D01E215956914220D0C1
:1007E0002A2159560324914210D0134B19781A70BC
:1007F0008171BFF35F8F00220B4B1A608CF310885E
:1008000070BDAB680D4C5C50EFE700246100091926
:1008100089005B18FF21997109499980E5E7012456
:10082000F4E70224F2E7C046240100D01C030020B4
:10083000AAAA000000ED00E09E080020CD010010F3
:1008400001BDFFFF054B064A1360064A1360536063
:100850009360D3601361536193617047808080809F
:1008600000E400E004E400E0024B9C46614489009F
:10087000016070474000003410B50400FFF756FED9
:1008800001002000FFF7F0FFFF232371BFF35F8F0C
:1008900010BDC04610B50400FFF748FE010020005F
:1008A000FFF7E2FFFF23A380BFF35F8F10BDC046B9
:1008B00083680B4810B58446614462441201090103
:1008C00059189B185C684A680120944201D802D0EC
:1008D0000020C0B210BD1A680B689A42F9D8F7E739
:1008E000FFFFFF0F0A4B1968EFF3108072B60A681A
:1008F000002AFCD0BFF35F8F1B68BFF35F8F00221D
:100900001A6080F3108840BF002000217047C04665
:1009100088080020F8B5574645464E46DE46E0B505
:1009200098460CAB1C780DAB1B78070091469A4695
:100930000568002C59D1AC7B002C3BD0660029689F
:100940003619033E89194B78AB73002B00D1EB733A
:1009500000238B704B700B702D4BE218BB6812019B
:100960009B184A461A6042465A600A9A9A600B9A45
:10097000DA6000238B704B700B706B7B9B46002BF7
:1009800026D022006B685946A86898475B465B00F2
:100990005B442A68033B002812D058469619B07071
:1009A000D118D35C002B00D073705B460C706B7356
:1009B0005C450ED0F0BCBB46B246A946A046F8BD89
:1009C000D3189C709119925D002A1CD15B460B7064
:1009D0006C734A464346387D00F09EFB051E0AD1E3
:1009E0000E9B002BE6D01D70E4E7660029683619DF
:1009F000033E8919B0E75346002BF1D12100386836
:100A000000F0A2FDECE75A705B460B706C73E0E7F8
:100A1000FFFFFF0FF0B5DE4657464E464546002322
:100A2000E0B58BB00893684B8200D45800239B46F6
:100A3000099000F011FB02000B006068EFF3108AD0
:100A400072B6564601680029FCD0B246BFF35F8FEC
:100A500021684F7B8C46002F2ED0A5685B49A946A4
:100A600079180901894449460868496805000E005B
:100A7000AD1A9E41002E5FDD02000B00099800F0C8
:100A80004BFB002300229946002306920793002384
:100A900098466368BFF35F8F5A461A608AF31088DE
:100AA0004346002B12D10028C3D10BB0F0BCBB468B
:100AB000B246A946A046F0BD002300229946002375
:100AC00006920793002300209846E2E7089B4946D8
:100AD00018023843C047626805000E00EFF3108A21
:100AE00072B61368002BFCD0BFF35F8F002E41DB82
:100AF0002B00334302D02369002B56D12368D97BC6
:100B0000002905D01A68480041185218033A577056
:100B10009A7B002A00D19F73DF73E268013FD35DA7
:100B20000133D3555B4623616368BFF35F8F5A4639
:100B30001A608AF310887CE7002E02D1002D00D0C5
:100B40009AE70021604600F07DFC4B461A685B681E
:100B5000069207934B469B6898464B46DB6899463E
:100B6000E368DB19013B1B7808931B0203432361F5
:100B700000208EE72369002BC0D0069A079B8021B6
:100B8000521BB34109068B4202D30122104B524241
:100B90000021049101310391494601914146200011
:100BA00002970091FFF7B6FEBCE700F055FA2A0065
:100BB000330012184B41802109068B42E8D30122F1
:100BC000034B5242E4E7C0466C080020FFFFFF0FD2
:100BD000FFFFFF7F10B5144C6368002B04D00A217F
:100BE0001248FFF741FE10BD2300114A1021206872
:100BF00000F044FB032000F023FA032000F0F4FA95
:100C000003200C4900F042FAFFF790FC0A4B9C4687
:100C100003232375D0231B061B6860446375074BB1
:100C200080006060DC60DAE7640300208808002050
:100C3000B1080010150A0010400000346C080020B4
:100C4000F0B557464E464546DE46E0B585B00193C1
:100C500010AB1B780600039300239A469846009237
:100C60007268EFF3108B72B61368002BFCD0BFF3E1
:100C70005F8F3568AC7B002C00D16EE067002B687D
:100C80003F19033FDB195A78AA73002A00D1EA738F
:100C9000484AA118B26809015218009801991060D9
:100CA00051600E9991600F99D16042469A705A70C6
:100CB0001A706B7B9946002B00D16BE022006B68A9
:100CC0004946A86898474B465B004B442A68033B5B
:100CD000002856D04846D719B870D118D35C002BDD
:100CE00000D07B704B460C706B734C4553D0F3684F
:100CF0001B19013B18787368BFF35F8F42461A6077
:100D00008BF310885346002B08D10002204305B016
:100D1000F0BCBB46B246A946A046F0BD039B002BE3
:100D200046D00E9B00200F99984703000B433FD0FD
:100D300004000D1E1ADA009A019B121BAB410092AF
:100D4000019380221206934204D301231A4C5B4282
:100D500000930194039B9A4682E77368BFF35F8F09
:100D60001C608BF3108801204042D0E700F074F93A
:100D70008022001969411206009001919142E9D345
:100D8000E3E7D3189C70D119D25D002A00D05A70C5
:100D90004B460B706C73307D009A019B00F0BCF9E0
:100DA00082460028A3D02100306800F0CDFB9EE7EA
:100DB0000020ACE7FFFFFF0FFFFFFF7FF0B504004F
:100DC0000D0006267642F717C64636196F4100B564
:100DD00084B08F4214D811D000F03EF932003B00AD
:100DE000121A8B41002B15DC002B3ED0200029006D
:100DF00000F03CF904B080BCB846F0BD8642EBD9A7
:100E00000026002700F028F932003B00121A8B411F
:100E1000002BE9DD002302930193154B3200009370
:100E200014483B00FFF70CFF0028DFDB0023984647
:100E3000BC46114A114F7B6A9C4504D8B96A8E4260
:100E4000D4D99C45D2D11168EFF3108072B60B68EB
:100E5000002BFCD0BFF35F8F1368BFF35F8F414659
:100E6000196080F3108820BFE5E7002ABED0D1E7E3
:100E7000E5080010640300208808002000400540B9
:100E800070B5060000F0E8F8FA2204000D00002317
:100E900030000021920001F0D3FD80230019694148
:100EA0001B06994202D3012002494042FFF786FF08
:100EB00070BDC046FFFFFF7FF0B5EFF30583CE4660
:100EC000474680B505000C0085B0002B12D02A4A99
:100ED0000020536AA34203D3926A0130AA4204D38A
:100EE00005B0C0BCB946B046F0BD1B1B5A1E9341AD
:100EF000D8B2F5E7214E02930193214B02000093F3
:100F000030000B00FFF79CFE031EE0DD20BF716880
:100F1000EFF3108772B60A68002AFCD0BFF35F8F28
:100F2000DAB29446FF2230681A40417B61450FD007
:100F30000168894651008846494690444144033936
:100F40008978002904D13269934209D1316107E0DF
:100F5000F1681B0A8A18013A1278DBB29A4207D06C
:100F60007368BFF35F8F00221A6087F31088AEE7C3
:100F7000614600F0E9FAF3E7004005406403002011
:100F8000E5080010F0B5EFF30582D6464F46464619
:100F90001000C0B51038EFF3108872B6214C2368EA
:100FA000002BFCD0BFF35F8F0123190081401E4D41
:100FB0001F006963AA461D4D29601D4D2E78AC4661
:100FC0003500C5402F402B4215D053465F6A194B60
:100FD0008500EB589F4218D36246174B8E43EB585F
:100FE0001670BFF35F8F0022226088F31088002BF9
:100FF00006D0984704E0BFF35F8F276088F310881E
:10100000E0BCBA46B146A846F0BD0C4B92009C46E7
:10101000624413681360BFF35F8F0023236088F37B
:101020001088EDE7280100D0004005403C700540E5
:101030009F0800208C080020F8060020D03F0540C3
:1010400010B5034B01001800024AFFF73FFA10BD2C
:101050009D080020902F0010034B596A0A00986ADF
:10106000596A8A42FAD1704700400540064A536ADD
:101070009942FCD807D1044B02E05A6A914202D14E
:101080009A6A8242F9D370470040054070B5040067
:101090000D00EFF3108672B61A4A1368002BFCD0CD
:1010A000BFF35F8F002D1BD02000FFF75DFA1649BC
:1010B00081420AD02000FFF75FFA01212000FFF7EC
:1010C00041FA0123A340114A1360114BA400E550DB
:1010D000BFF35F8F00220B4B1A6086F3108870BD40
:1010E0000121A1400A4BA200D5500A4B20001A78DA
:1010F0008A4305491A70FFF769FA00212000FFF7BB
:1011000021FAE5E7280100D0850F0010386005407E
:10111000F80600209F080020F0B54F46D646464608
:10112000C0B507002B4C616A0D00A66A616AA9422E
:10113000FAD18B4208D805D00120E0BCBA46B146AE
:10114000A846F0BDB242F7D9EFF3108A72B6224832
:1011500001680029FCD0BFF35F8F0125BD401F4906
:101160001C4C8846097889462943C9B28C464146B9
:1011700060460870391D890065630A511849B80036
:101180004350216A0020294219D0616A0800A66AEA
:10119000616A8142FAD18B4219D801D1B24216D884
:1011A000CC450BD00B4B1F221D625D6301233A40DF
:1011B00093400C4A136043464A461A700120BFF31D
:1011C0005F8F0022044B1A608AF31088B5E7002075
:1011D000F5E7C04600400540280100D09F080020E8
:1011E0008C08002080E200E0EFF3108C72B60A4910
:1011F0000B68002BFCD0BFF35F8F01238340074AAD
:101200000748136202789A430270BFF35F8F00238E
:101210000B608CF310887047280100D00040054017
:101220009F08002070B506000D00140000291DD095
:10123000002A12D073688068984762006B00121908
:101240005B193168033A033B002808D08A1895706F
:10125000C818CB5C002B0BD10470280070BDCB18D4
:101260009C7088188A5C002A05D105702000F5E77B
:1012700053700470F1E75A700570F7E710B583609A
:101280000023CCB243730133426004738373C4738D
:101290000068421C012C05D90133DBB21370033204
:1012A0009C42F9D1FF230B405A00D318C0180023E9
:1012B0000338437010BDC04670B505000C1E07D042
:1012C000630001681B19033BCB185A78002A01D12F
:1012D000200070BD500080180338091800204E7897
:1012E0004870210058702800FFF79CFF310004006F
:1012F0002800FFF7E1FF0600002C20D00028E7D0EF
:10130000320021006B68A868984772006300921948
:101310001B192968033A033B002808D08A189470E7
:10132000C818CB5C002B00D053700670D0E7CB18E8
:101330009E7088188A5C002A00D05A7004703400AD
:10134000C6E7C046F0B557464546DE464E46E0B5D0
:101350000D006F0001687F19033F0400C85D83B072
:101360000192CA19002850D043001B18033BCB1828
:101370005E78B446002E1AD1019E002E42D0E67B44
:10138000002E04D073009B19CB18033B5D70A37B28
:10139000002B00D1A573E57300282FD100235370D3
:1013A00003B0F0BCBB46B246A946A046F0BD7200F1
:1013B0006244033A8A185178884600215170894660
:1013C0005970320001002000FFF72CFF434682468F
:1013D000002B07D05B0021684344033BCB185A78AD
:1013E000002A16D1424651462000FFF71BFF216814
:1013F000019BCA19002BC2D10028CFD043001B1873
:10140000033BCB1800219970C8E7019B002BB6D194
:10141000C4E75000801803380918487883464846C6
:101420004870587041462000FFF7FCFE5946804640
:101430002000FFF741FF414602002000FFF7F2FEC7
:101440008046CFE7F0B557464546DE464E46E0B506
:1014500083B00191457B04006F0000687F19033F52
:10146000C15DC219002952D04B005B18033BC31861
:101470005E78B446002E1CD1019E002E44D0E67B3F
:10148000002E04D073009B19C318033B5D70A37B2F
:10149000002B00D1A573E573002931D1002328006A
:1014A0005370617303B0F0BCBB46B246A946A04678
:1014B000F0BD72006244033A8218507880460020E2
:1014C00050708146587032002000FFF7ABFE434653
:1014D0008246002B07D05B0021684344033BCB18B6
:1014E0005A78002A17D1424651462000FFF79AFE4B
:1014F000019B01002068C219002BC0D10029CDD06A
:101500004B005B18033BC31800209870C6E7019B93
:10151000002BB4D1C2E7500080180338091848786E
:10152000834648464870587041462000FFF77AFECF
:10153000594680462000FFF7BFFE414602002000CA
:10154000FFF770FE8046CEE770B5050000292CD06D
:10155000437B8B422ED04C0000686418033C041976
:10156000A278002A21D053009B18033BC25CC61806
:101570008A4202D11BE0002A08D053009B18033B8B
:10158000C3185A788A42F6D162785A700023012231
:101590002800A3706370FFF7D5FE697B0200280066
:1015A000FFF740FE6873012000E0002070BD637803
:1015B0003370EBE701221900FFF7C4FEF2E7C046E3
:1015C00010B50C2082B000F0B7F9FEF777FF0028C5
:1015D00010D08B4B8B488B498B4A186059609860B0
:1015E000D960186159619861D961186259625A626B
:1015F00002B010BD854CA06700F0A6F90122844B13
:101600001A60636C012BFCD10322824B1A607F4A63
:10161000936B012BFCD1013301217F4A7F4800935A
:10162000043300F037F905237D4A009301217D48FA
:1016300000F030F97C4B5A68FF2A02D88022520011
:101640005A608022734B6E4C12011A602169002986
:1016500007D0606900F082FA013043001B18033B99
:10166000FDD2E022704B714819680A4002600222E4
:101670001968514001320A40042102609A681142FF
:10168000FCD080216A4A09011160802252005A6010
:10169000684B2361684B5968FF2900D85A600322C0
:1016A00001215B4B1A60644A93681942FCD0E02325
:1016B0001068034061480360126803234A40022116
:1016C00013405D4A036093681942FCD080215C4B53
:1016D0000901196080215B4B4900516063615A4BDD
:1016E0005A68FF2A00D859608022584B12011A60AC
:1016F000E169002907D0606900F030FA0130430049
:101700001B18033BFDD2E0234F4A11680B405049A0
:101710000B6080214F4B090119608021394B490032
:101720005160E3614C4B5A68FF2A00D8596080220F
:101730004A4B12011A60216A002907D0606900F043
:101740000DFA013043001B18033BFDD2E023424A4F
:1017500011680B4042490B608021424B090119601E
:1017600080235B0053608022264BD20223623E4BD3
:101770005968914200D25A6080223C4B12011A6093
:10178000616A002907D0606900F0E8F90130430080
:101790001B18033BFDD2E023334A11680B40344948
:1017A0000B608021334B090119608023DB025360F9
:1017B000154B6362304B5A68FF2A02D880225200D0
:1017C0005A6080222D4B12011A60A169002907D0AE
:1017D000606900F0C3F9013043001B18033BFDD2E0
:1017E000E023254A11680B4025490B608021254BD9
:1017F0000901196080235B005360124BA361F7E677
:10180000D0030020006CDC021BB700000080004009
:101810003CB0004030B00040002F685900800240CA
:10182000008C864700C0024030800040309000406D
:1018300030A00040001BB7003C8000403C900040BE
:101840003CA00040405973075480004054B0004011
:101850005490004054A000406080004060B00040C0
:101860006090004060A000406C8000406CB0004080
:101870006C9000406CA000404880004048B00040A0
:101880004890004048A00040014B8000C05870477D
:10189000D0030020F8B5040022481E0017000D00F8
:1018A00000F05CF90100380000F058F9069B36049E
:1018B0001B031E432368002B22DB1B4B1B49E31831
:1018C0005A1E93418022920194465B421B0B184A98
:1018D0001B0363441360174A13601F008A68974311
:1018E000FBD1C022231D92011A4321232560A06051
:1018F00013602368002BFCDA0823E6601360F8BD50
:101900003F2322681340AB42D7D1A3681B051B0DB0
:101910008342D2D1EE22E368D2021340B342CCD14B
:10192000EDE7C046001BB7000040FDBF00C000400F
:1019300000E0004000F000408023024A9B00034387
:10194000D362704700800540AA23064A1B0113603A
:101950002F230549D360054B19605368002BFCDA2F
:101960007047C0460040024000B0FA0000600240EC
:101970002C4B2D4A70B51A602C4A2D4B2D491A60FC
:1019800014008B689C43FBD12B4D2C4EB54208D2E2
:10199000013E761BB60808CD984723000134B342B8
:1019A000F9D1FFF70DFE264A214B1A60214A9368B0
:1019B000DB43DB01DD09002BF9D14022214B224C16
:1019C000224E9A675A671A67DA66B44208D22368C9
:1019D0002000002B20D00834FEF75CFFB442F6D381
:1019E0001B4C1C4EC022B168200001F099F8B46075
:1019F000FEF78EFDFEF726FFFFF7ECF8164C174EAC
:101A0000B44208D2013E361BB60808CC98472B00DA
:101A100001359E42F9D170BD0834FEF72DFFB44266
:101A2000D5D3DDE700E00040BFCDFBFEFE7F3C00EC
:101A300000F0004000C00040B8030020C8030020B0
:101A4000FFFFFF0100F00140B0030020B8030020B9
:101A50000000002000ED00E0C8030020D0030020BB
:101A600000BEFDE710B5FFF7FBFFC0460FB400B5A1
:101A7000084883B001F0F0F8049B002B07D005A9BB
:101A80001800019100F018F8034801F0E5F8012072
:101A9000FFF7E6FFB42F0010C42F001010B5014867
:101AA000FFF7E4FFC82F001010B5002800D110BDCB
:101AB00001F086F8FBE7C04610B5094A0300146838
:101AC00084B0002C08D0012200910648524203A99C
:101AD000A047012004B010BD01F0BEF80020F9E7D6
:101AE00050080020A91A001001480421014B184792
:101AF00090030020191B0010142310B50100188852
:101B000004331B88984710BD162310B501001888B0
:101B100002331B88984710BDF8B54746CE4680B5BE
:101B20000F1E19D014239946043304000025012602
:101B300098464B461888434621681B88984701C43D
:101B4000431E9841013540420640AF42F1D130007A
:101B5000C0BCB946B046F8BD0126F8E7114A936FFC
:101B60009B0813D210665166002905D0FFE7FFE7F6
:101B7000FFE7516F106F704704B5002801D00020B7
:101B8000C04301F0E5F9002104BDC046F0B5146E74
:101B9000556E576F166FFFF7E5FF1466556657676A
:101BA0001667F0BD000000D044464D4656465F46DD
:101BB000F0B47047F0BCA046A946B246BB46704799
:101BC00048404140484018B41B4B5B68FC460193B9
:101BD00008BD04DF6F20001018B4174B1B68FC46CB
:101BE000019308BD00DF792000109446134A926FDC
:101BF000920809D2624618B40F4BDB68FC46019389
:101C000008BD0CDF312300100C4AF0B5146E556E80
:101C1000576F166F6246FFF7EEFF084A1466556667
:101C200057671667F0BD18B4034B9B68FC460193D9
:101C300008BD08DFD5210010F8040020000000D006
:101C40000021002805D17047C1174840401AFAD03A
:101C5000C90713B5064B1B6898470CBC441CA2402F
:101C60001005120B0349091B09051943114310BD47
:101C7000840800201F04000010B54C00620D802372
:101C8000D218DB00D21A5B057E2A10DD9E3A13DAE9
:101C9000CC170903490819435242D140640001346A
:101CA0001532202A05DAD0400843604310BD0020D9
:101CB00010BD0846604310BDC80FC018013810BDE4
:101CC00018B4044B1B6EFC46019308BD60DF0B2665
:101CD00000100000F8040020024A034B00B500F099
:101CE000A5F900BD182D4454FB2119408A0002D3E8
:101CF000920D092A08DA18B4064B1B6CFC460193B6
:101D000008BD40DF3F27001000B5FFF7E5FF04BC2A
:101D10009646F0E7F8040020132370B51D78012DD6
:101D200015D010DD1D48FFF7EFFE1D4C010080228D
:101D3000200000F0F5FE022D2DD01A48FFF7DCFE42
:101D4000194B186070BD194B154CA364F5E7174B80
:101D5000134C23606360A360E36023616361A3614C
:101D6000E36123626362A362E36223636363A36349
:101D7000E36323646364A364E36423656365A36529
:101D8000E36523666366A366E36623676367A36709
:101D9000E367A364D1E7054BA364CEE75344000097
:101DA000F80400204C330000840800203D2000107F
:101DB000F0B545464E46DE4657461C001300E0B5DA
:101DC00089B0049305944D00129B904664006A0DFF
:101DD00081469446640D002B02D01A000023136044
:101DE0008F4DAC456FD0002C6DD06346002B00D1D9
:101DF00074E002000B00AC4267D0651E654564DCF0
:101E00008022CB0F9B460B0352031B0B13431F0077
:101E1000059B4E461B031B0B9A46434602935346B3
:101E20001A430392654500D18FE05B46002B00D139
:101E3000ADE03B003200002756429F4163461D1B28
:101E4000002D00DCB4E00120039B40421911FFF794
:101E500085FE00239B461D3381469A46A84607947B
:101E600018E032009A4001923300AB40200000930A
:101E7000E117029A039B00F0E3FD009E019F5B4681
:101E8000A346AB409B4443465B1B361A8F419846A2
:101E9000002B26DD45460C2D00DD0C254B46BC11E4
:101EA0005C4353465B1B1C412B0001346410203BF8
:101EB000D7D5202332005B1BDA4013003A00AA403A
:101EC0001A430192D0E70022564B1000190009B0C6
:101ED000F0BCBB46B246A946A046F0BD0022002396
:101EE000F3E7079C029A039BBB4200DD7CE000D134
:101EF00076E0029A039BB61A9F41BB4200DD8BE05D
:101F000000D185E0029A039BB61A9F4102239C46AA
:101F1000E3443200029803993B0092197B418B42C3
:101F20000BDC01D1824208D802998A421BD1039A64
:101F3000934218D15B46DB0715D5029A039BB61A6C
:101F40009F4101239C46E3440DE097423FDD029A06
:101F5000039B594692185B41002948D1B61A9F410C
:101F600001232C009B46059B002B02DA5B465B425B
:101F70009B46129B002B01D05A461A602A4A300019
:101F8000121B3900FFF79CFE02000B009DE7634621
:101F90001D1B002D00DD56E7029A039BBB42CCDCE3
:101FA00033D0029A039BB61A9F4101239B46B0E7A8
:101FB00000239B46029A039BB6185F41002F1FDA4D
:101FC000B6185F4102235B429C46E344A1E7029BB3
:101FD000039CA74201D19E42B9D802000B0074E7CE
:101FE000029BB34200D884E7002F92DAE2E7921B0B
:101FF000BB411F0001235B4216002C009B46B2E749
:1020000001235B429C46E34483E7B242C9D994E78B
:10201000029BB34200D875E701239C46E34478E76E
:10202000FF0700000000F07F3304000010B500241B
:1020300082B00094FFF7BCFE02B010BD07B5604649
:1020400001880A0A0230DF2AFAD1C9B2820804D311
:10205000028840880004104300E00068014A5050A4
:10206000039007BDF80400200FB403BC0CBCF0B50E
:102070000124E407634000E0F0B50C0DCF0F661EAD
:102080003605891B640503D3C943404200D301319F
:10209000640D03D0661CF60A07D0E41B00207F0005
:1020A000791C89078912803C24031D0DDF0F6E1EE9
:1020B00036059B1B6D0503D3DB43524200D301332E
:1020C0006D0D03D06E1CF60A07D0ED1B00227F00B9
:1020D0007B1C9B079B12803D2D032F1B661B58D436
:1020E000A446202E46DA20371400BC401D00BD4017
:1020F000F24033412A4380185941CB0F05D0C943E0
:10210000C043002264425041514162464D0D28D1E6
:102110000D0D07D100281FD0241940414941013A33
:102120000D0DF9D0640006D3013000D30131002C2D
:1021300001D140084000013A0BD4941CE40A04D1B8
:1021400012051144DB071944F0BDD907204B194390
:1021500000E0D9070020F0BD0029DDD1002CDBD143
:10216000F0BD0132C6074008CD0728434908002EBC
:10217000E1D0D9E73C2E29DA203E40371400BC409C
:1021800000D00124F24014431A00BB401C43D31773
:10219000ACE7AC46202F08DA20360400B4400D002E
:1021A000B540F84039412843A5E73C2F0CDA203FE1
:1021B00040360400B44000D00124F8400443080035
:1021C000B1400C43C117EAE710001900002494E75E
:1021D0000000F07FF0B50C0D661E3605891BE60A7F
:1021E0006405640D02D0651CED0A04D000200121B5
:1021F0000905803C2403A4461C0D671E3F05DB1B1C
:10220000E70A6405640D02D0651CED0A04D00022C3
:1022100001231B05803C24037740644497B484B2B7
:1022200096B27443070C7E43150C6F4380B268432B
:10223000361802D3012000043F183004350C001971
:102240007D41844688B29AB250430C0C62431F0C05
:102250007C438EB27E43921902D301263604A41920
:102260001604170C3618674101BC81B29AB251436B
:10227000040C62431B0C5C4380B25843121802D317
:102280000120000424181004130C401863412D1879
:102290005E410020474106BC88B293B258430C0C03
:1022A0006343120C544389B251435B1802D301219A
:1022B0000904641819041A0C091862416D18564172
:1022C0000020474118BCF902720D1143F0026A0D5B
:1022D0001043ED020A0D03D16D1940414941013B04
:1022E000124E9B1B7600B3420ED26D0007D3013015
:1022F000002671416646354301D1400840001B0568
:10230000C918E4072144F0BD0BDA013306D10130CE
:1023100004D101314F0D01D04908F2E7E107002057
:10232000F0BD013631050020EBE70000FF0300009F
:10233000F0B51C0D671E3F05DB1BE70A6405640D45
:1023400002D0661CF60A04D0002201231B05803C43
:102350002403D0252D060026F6432E661E096E6640
:10236000CE0FF619B44649004F0D02D07E1CF60A76
:1023700003D000200021403F3F033E1BB600B44481
:10238000013F7F05C91B49082E6F013676089C0264
:10239000950D25437543ED137543AD1301356D1050
:1023A000F603761B0CB4CC02450D2C43A2B2B3B29B
:1023B0005A43270C7B43350C6F43A4B26C431B1963
:1023C00002D3012424043F191C041D0CA4187D41D0
:1023D00024196D41009A91B2ACB26143170C7C4351
:1023E0002B0C5F4392B25A43A41802D30122120469
:1023F000BF182204230C52187B41019C6C431B190B
:10240000520ED9010A434401A01A81B2B2B251431B
:1024100003145A43360C734387B27743D617D21945
:1024200000277E4136049B191704160C7F185E4165
:102430007316ED18F301002680337541A90F06D1FC
:102440006400690AE8055B0A184309D22FE00422F8
:10245000944480337541A90AA8059B0A184326D3E2
:10246000404149412404009A019B0D005543641BDF
:102470004343E41A95B286B27543170C7E43030CAE
:102480005F4392B25A43B61802D301221204BF1816
:102490003204330C52197B4152429C41002C02D42D
:1024A0000022013051414008CA071043490802B0D8
:1024B0006246D7079210084BD218084B9A4203D2B3
:1024C00012058918C919F0BD0020002A01DC390065
:1024D000F0BD01331905F5E7FD030000FE0700001C
:1024E000624618CA94465A46002A20DB04E0624637
:1024F00018CA944600291ADAC01861415B463B416C
:102500005C46B4405246FA40224344464D4662413E
:102510006B41904699462B46B3403D41FC401C43DD
:1025200052465B46A241AB4192469B467047C01A59
:10253000A1414B463B414C46B4404246FA402243FF
:1025400054465D4662416B4192469B462B46B340E2
:102550003D41FC401C4342464B46A241AB419046A4
:1025600099467047002200B500F00DF8CA179A424C
:1025700000D100BDD8430121C907414000BD000082
:1025800000220B150AD410B5944600F079F8141403
:10259000013400DA0021CB17144C20470020002121
:1025A00070476244343A0CD40C2A07DA0400914094
:1025B000904052422032D440214310BDD843D943E9
:1025C00010BD203207D40C469440524220321141B3
:1025D000D040204310BD0800C917203203D4524216
:1025E0002032104110BD1800190010BDA3250010A5
:1025F00000210A00002104E000210A00C11704E0C4
:102600000022002306E0C0460022CB175840594064
:10261000C01A994130B5184CA21A002903D1010003
:1026200010D00020203A4C1512D104D2013A0018E3
:1026300049414C0DFAD3114CA24204D2120589181B
:10264000DB07C91830BDD243520D00200021F5E749
:1026500003D4013A00184941FBD50B324405C00AA6
:102660004D052843C90A640003D00024604161413C
:10267000E1E7E0D34408F8E732040000FE07000079
:102680000A0DCC0F531E1B05C91A520503D3C943AB
:10269000404200D30131520D03D0531CDB0A07D056
:1026A000121B00206400611C89078912803A120302
:1026B000014BD21A70470000FF030000023225D4FC
:1026C0000C2A1CDA1125AD1A0B002B4108320735F4
:1026D0000600EE40904091403143F0CC63431A1520
:1026E00000235A41554356435743BF02F41276051F
:1026F00076196741ED177F19801BB94170470C228D
:102700000020C917490001310905DBE70902030E62
:10271000194300025342203208D40C00194194405E
:10272000D840204300225041514170470800C9174A
:10273000203B2032F1D50020002100227047F0B567
:10274000FFF732FA00F006F800F046F8FFF732FA29
:10275000F0BD000000B5FFF793FF30A4FFF7AEFF18
:1027600000242C4D2C4ED20702D3F6436D42664115
:10277000520004D2A246A346A846B14603E0A046B2
:10278000A146AA46B3466EA4A44601271F26FFF71A
:10279000AEFE0137013E212FF9D100BD594684B26A
:1027A0008DB26C43061475430B145E4382B25A43D8
:1027B000AD18EA1700D7D2431204B6182A042B0C1E
:1027C00012197341404649469D009B17920F2A43B8
:1027D000904199413E2218E7494684B28DB26C433C
:1027E000061475430B145E4382B25A43AD18EA17C0
:1027F00000D7D2431204B6182A042B0C12197341C5
:10280000504659469D009B17920F2A43504159410B
:102810003E22FAE6BB4DF09DC556F6367D510000CE
:102820001A61140085880A00FB211900F0B5FFF732
:10283000BBF9404D0C002C4001D0AC4202D1090D37
:10284000090500201C002C4001D0AC4202D11B0D18
:102850001B0500220026ED02002B04D502266B404A
:10286000694000D476424F1904D599420CDD0136F7
:10287000694003E0BB4207DA013E6B4007001000ED
:102880003A000F0019003B0040B4002A0FD1002B82
:102890000AD05C006415013409D14C006415013480
:1028A00002D10139013B02E0002000212EE0FFF7B8
:1028B0003FFD3E22FFF757FE82468B460020002157
:1028C00080460122920791461DA4A44601271F2697
:1028D000FFF706FE0137013E212FF9D14A46534644
:1028E0000C3A01246407002752081B0005D49341C9
:1028F000001979416408F7D104E05341001BB94144
:102900006408F1D1CE0749104008304340BC002E86
:102910000AD0094C094D01D5E443ED43F60701D136
:1029200000196941001969413D22FFF76EFEFFF76A
:1029300041F9F0BD0000F07F8D305A88A8F643328F
:10294000694FBB610567AC1DB16E4096FCBAAD0F17
:1029500072DB0BABA66EF50739BD9FE576ABFE03C8
:102960004B6297BA5BD5FF01D694DBDDAAFAFF0074
:102970005DEAEE5655FF7F006E77B7AAEAFF3F008B
:10298000BCBB5555FDFF1F00DEADAAAAFFFF0F001F
:102990006F5555F5FFFF0700ABAAAAFEFFFF030026
:1029A0005555D5FFFFFF0100ABAAFAFFFFFF00005E
:1029B0005555FFFFFF7F0000ABEAFFFFFF3F000020
:1029C00055FDFFFFFF1F0000ABFFFFFFFF0F0000E3
:1029D000F5FFFFFFFF070000FFFFFFFFFF03000001
:1029E00000000000000200000000000000010000E4
:1029F0000000000080000000000000004000000017
:102A00000000000020000000000000001000000096
:102A100000000000080000000000000004000000AA
:102A200000000000020000000000000001000000A3
:102A300000000080000000000000004000000000D6
:102A400051434343C9188C46110C83B24B4310B415
:102A5000040C614392B280B2504362431C041B0CCD
:102A6000001910BC59411304120CC01851416144A3
:102A700070470000132310B512481C78FFF744F884
:102A80000100012C0AD003DD80220F4800F048F835
:102A90000E48FFF731F80E4B186010BD0A4C542257
:102AA000200000F03DF80B4B6365A365E3652366EA
:102AB0006366A366E36623676367A367E3672362CE
:102AC000E361E5E753460000F80500204C330000C1
:102AD00084080020D92A001007B5604601880A0A38
:102AE0000230DF2AFAD1C9B2820804D302884088B2
:102AF0000004104300E00068014A5050039007BDF5
:102B0000F805002001480421014B1847A0030020CC
:102B1000191B0010014B1B6818470000A003002080
:102B2000014B5B6818470000A0030020F0B5C646C3
:102B300000B5437D07000D001600002B38D0002A99
:102B40002EDD00216A1E90466A5C037D4C1C00202D
:102B50000A2A0CD0A64216D043461B5D21000D3B2D
:102B60005A4253416A5CDBB24C1C0A2AF2D1002B58
:102B7000F0D1884217DB022110483B689847A642F3
:102B800007D02000E8E7864203DD311A3B682818A9
:102B90009847AD19013D2B780D3B5A4253413B7587
:102BA00080BCB846F0BD091A3B6828189847E2E790
:102BB0000368110028009847F2E7C046443000102F
:102BC000F0B5CE46474680B583B06B460600DD1DA6
:102BD0002870FEF741FA00231A4A12184B4180214F
:102BE00009068B4202D30122174B524217490800B3
:102BF000884600F0BDF9164B81461C68002C14D0A5
:102C0000144F02E02469002C0FD02368002BF9D068
:102C10003B68002B01D0A342F4D1200001222900FF
:102C2000FFF784FF2469002CEFD14B46002B05D120
:102C3000300003B0C0BCB946B046F0BD404600F01D
:102C40007FF9F5E740420F00FFFFFF7FB003002050
:102C5000480800204C080020F0B5DE4657464E4696
:102C60004546E0B585B0070000F032F90600FEF7F2
:102C7000F3F900232B4A12184B41802109068B429D
:102C800002D30122284B5242284908008B4600F00B
:102C90006FF9274B01901C689A46002C3BD0254BBE
:102CA000984602ABDD1D0A23994602E02469002CF8
:102CB00017D02368002BF9D043461B68002B01D0A6
:102CC0009C42F3D1200032003900FFF72FFF4B4622
:102CD0002000012229002B70FFF728FF2469002C17
:102CE000E7D1019B002B18D153461C68002C06D05D
:102CF0006368002B0BD098472469002CF8D1300072
:102D000005B0F0BCBB46B246A946A046F0BD24695A
:102D1000002CEDD1F3E70028F1D0584600F010F96F
:102D2000E2E7C04640420F00FFFFFF7FB0030020F4
:102D3000480800204C08002010B5024800F004F8B4
:102D400010BDC0467C08002010B588B004000D22DC
:102D500000216846FFF7DEFE0D22002104A8FFF7E0
:102D6000D9FE4B236A466846137004A90D2200F071
:102D7000DFF81521082220006944FFF7D1FE08B0D2
:102D800010BDC046F0B54E4681464D4A45464A44C0
:102D9000531E9A418023DE4657465B029C46E0B5AF
:102DA000484B120462441A60474B0D00474983B0F8
:102DB0001A6010008B689843FBD10620FEF764FD73
:102DC0004B465A6802231A40019204224A44934611
:102DD000C0225946920111430B608A4680218046E9
:102DE00049008C4641460220A846EF0D6E02AB0D0D
:102DF000AA02009104E0009CA5425ED8604553D031
:102E0000010015001C00023092197B41002CF2D009
:102E1000009B454698465B468024AB460D000E025B
:102E2000761A640000932700013C002C40D031004A
:102E30004046FEF793FE761B8345F4D2009B2900A3
:102E40009B466F4324024B4619611B684A465C400F
:102E5000FF231B021C4080235B0113438022594641
:102E60000198920111431C60086048465546446829
:102E7000022028604D462E6807256E40C835354033
:102E80001D604B4624331A43032304400C60136037
:102E9000086039004046FEF761FE03B0F0BCBB4657
:102EA000B246A946A046F0BD45460100A046B2E79D
:102EB000009B29009B462F00C5E74546A046AAE790
:102EC0000040FCBF00E0004000F0004000C00040B7
:102ED00010B583070AD00300032102E001330B423F
:102EE00005D01A78002AF9D1181A10BD0300196804
:102EF0000C4A0D4C8A188A4322420FD15968094A5C
:102F000004338A188A43224208D15968054A043397
:102F10008A188A432242F1D000E001331A78002A4D
:102F2000FBD1E1E7FFFEFEFE80808080F8B5C04661
:102F300001B40248844601BC604700BFF90100208B
:102F400001B40248844601BC604700BF5D01002017
:102F500001B40248844601BC604700BF050300205D
:102F600001B40248844601BC604700BFB90200209A
:102F700001B40248844601BC604700BFC100002084
:102F8000080052500A38A50453504920435300000A
:102F9000486172647761726520616C61726D202591
:102FA0006420616C726561647920636C61696D6530
:102FB000640000000A2A2A2A2050414E4943202A50
:102FC0002A2A0A000A0000004861726420617373B3
:102FD0006572740052656C6561736500626F6F7431
:102FE000325F77323571303830000000312E352EA7
:102FF000310000007069636F000000004441435FCE
:103000004D43503439313200417072203131203219
:10301000303234000900525000000200882F0010A6
:1030200006005250D3F07542D42F001006005250C3
:10303000E182887FDC2F001006005250BBFF3CB6B7
:08304000F42F00100D0A00003E
:1030480014300010802F0010203000102C30001099
:10305800880200103830001094020010A0020010FE
:04306800AC020010A6
:10306C00F0B5C646150000B504001E000268EFF36B
:10307C00108172B61368002BFCD0BFF35F8F042352
:10308C00E356002B2DDB2268BFF35F8F002010600E
:10309C0081F31088D0221206127852B290469A42CE
:1030AC0003D1002080BCB846F0BD00270BE023689C
:1030BC00BFF35F8F1F6081F310882800310000F090
:1030CC00F3F80028EDD12268EFF3108172B6136883
:1030DC00002BFCD0BFF35F8F23797F2BE7D94346BE
:1030EC0002E0D0231B061B6823712368BFF35F8F9C
:1030FC0000221A6081F310880120D3E70268EFF3F5
:10310C00108172B61368002BFCD0BFF35F8FFF23C6
:10311C0003710368BFF35F8F00221A6081F310887C
:10312C0040BF704710B5084C2378002B0AD1802380
:10313C00064807495B051A68C25004338B42FAD122
:10314C000123237010BDC0469C0800200807001006
:10315C000001001010B5014B984710BD0907002065
:10316C00034B1A68C0239B009343024A13607047B9
:10317C000C8001400C900140054B1A6880239B0089
:10318C005340C02292001340024A13607047C0465D
:10319C000C8001400C9001401423F0B5D6464F46EC
:1031AC0046469A46814618880433C0B598460E00A8
:1031BC001B88264914009847534607001888434635
:1031CC0023491B88984753460500188843462149D4
:1031DC001B8898478046FFF7A5FFB847A847FFF71D
:1031EC00CBFF221E20D0C02108270220490511E068
:1031FC00002C14D0131B0D2B20D9002D0AD023002A
:10320C00002A05D00B6E013A3370130001362343AC
:10321C00002B09D03D008B6A1D401842E8D1002DCF
:10322C00EDD123001343F5D1FFF79AFFC047FFF709
:10323C0091FFE0BCBA46B146A846F0BD4B461B78A0
:10324C00013C0B6601239C46E144E8E7494600003B
:10325C00455800004643000030B50400101E0AD04B
:10326C000A000D180221E3681942FCD013780132D0
:10327C00A3609542F7D1E3685B0704D50421A368EA
:10328C00E3681942FBD11021E3681942FCD1E368D1
:10329C005B0704D50421A368E3681942FBD1012321
:1032AC00236230BD7047C04601B40248844601BC5D
:1032BC00604700BFB90E00101000000000000000B5
:1032CC0000000100000000000000000000000200EF
:1032DC0000000000000000000000030000000000DF
:1032EC00000000000000FF000000000001B548686D
:1032FC0001318E460047704609380149884701BDA7
:10330C00910700107C03002000000000F80300204F
:10331C000808002000000000000000001808002031
:10332C000000000000000000100000000000000081
:10333C00503300004C330000543300005233000073
:10334C004D5300004D430000533400004334000043
:10335C000000000000000000052B0010E91A00100E
:10336C00191D0010752A0010E5020010392D0010EF
:04000005100001E9FD
:00000001FF
